:0200000490006A
:10000000A8370024B50200905B6E00901B6500903D
:10001000596E0090C50600903D8A009000000000D7
:10002000000000000000000000000000EB7C0090D9
:10003000A5090090000000005D6E0090ED7C00902E
:10004000CF020090CF020090CF020090CF0200902C
:10005000CF020090CF020090CF020090CF0200901C
:10006000CF020090CF020090A7090090CF0200902D
:10007000CF02009069070090CF02009075070090B2
:10008000CF020090CF020090CF020090CF020090EC
:10009000CF020090CF020090CF020090CF020090DC
:1000A000CF020090CF020090CF020090CF020090CC
:1000B000CF020090CF020090CF020090CF020090BC
:1000C000CF020090CF020090CF020090CF020090AC
:1000D000CF020090CF020090CF020090CF0200909C
:1000E000CF020090CF02009000000000CF020090ED
:1000F000CF020090CF020090CF020090CF0200907C
:10010000F9090090CF020090A97E0090CF020090E4
:10011000D9830090CF020090CF020090CF020090D0
:10012000CF020090CF020090CF020090CF0200904B
:10013000CF020090CF020090CF020090CF0200903B
:1001400000000000000000000000000000000000AF
:10015000CF020090CF020090CF020090CF0200901B
:10016000CF020090CF020090CF020090CF0200900B
:10017000CF020090CF020090CF020090CF020090FB
:10018000CF020090CF020090CF020090CF020090EB
:10019000CF020090CF020090CF020090CF020090DB
:1001A000596500904D65009081070090CF02009046
:1001B000CF020090CF020090CF020090CF020090BB
:1001C000CF020090CF020090CF020090CF020090AB
:1001D000CF020090CF020090CF020090CF0200909B
:1001E000CF020090CF020090CF020090CF0200908B
:1001F000CF020090CF020090CF020090CF0200907B
:10020000CF020090CF020090CF020090CF0200906A
:10021000CF020090CF020090CF020090CF0200905A
:10022000CF020090CF020090CF02009000000000AB
:10023000CF020090CF02009000000000CF0200909B
:10024000CF020090CF020090CF020090CF0200902A
:10025000CF020090CF020090CF020090CF0200901A
:10026000CF020090CF020090CF020090CF0200900A
:10027000CF020090CF020090CF020090000000005B
:10028000CF020090CF020090CF020090000000004B
:1002900000000000CF020090DFF814D000F0ECF86E
:1002A00000F07EF8004800470D86019000F0C3F88A
:1002B000A83700240648804706480047FEE7FEE7C7
:1002C000FEE7FEE7FEE7FEE7FEE7FEE7FEE7FEE706
:1002D000CD7D0090990200902DE9F05F0546002049
:1002E00092469B4688460646814640241BE02846A7
:1002F00041464746224600F089F853465A46C01AFE
:10030000914110D311461846224600F070F82D1A7C
:1003100067EB01084F4622460120002100F067F8F4
:1003200017EB00094E41201EA4F10104DFDC484612
:1003300031462A464346BDE8F09F10B5441A0346AD
:10034000944209D28418114403E011F8013D04F8E5
:10035000013D521EF9D210BD40EA0104A40703D0AA
:1003600009E010C9121F10C3042AFAD203E011F8E1
:10037000014B03F8014B521EF9D210BDD2B201E07D
:1003800000F8012B491EFBD270470022F6E710B59A
:1003900013460A4604461946FFF7F0FF204610BDF3
:1003A00070B5054C054D03E0206820448047241DAE
:1003B000AC42F9D170BD0000E0351190F0351190DC
:1003C0002DE9F041074615460E46102017F094FF20
:1003D00004000AD06760C4E9026500F027F80168EC
:1003E000216004600020BDE8F0810120FBE7202AA5
:1003F00004DB203A00FA02F1002070479140C2F17C
:10040000200320FA03F3194390407047202A04DBAD
:10041000203A21FA02F00021704721FA02F3D0407D
:10042000C2F12002914008431946704700487047C6
:10043000C401002470472DE9F0410646FFF7F6FF9E
:100440008046454613E016B1E068B0420ED1206800
:100450002860D4E90101D8F800708847204617F0D9
:1004600035FDD8F80000B842EBD100E025462C68F5
:10047000002CE8D1BDE8F081064C074D06E0E068AD
:1004800040F0010394E8070098471034AC42F6D3DB
:10049000FFF706FFB0351190D0351190704770B559
:1004A0008C1810F8015B15F0070301D110F8013B1F
:1004B0002A1106D110F8012B03E010F8016B01F8A6
:1004C000016B5B1EF9D12B0705D40023521E0DD4FE
:1004D00001F8013BFAE710F8013BCB1A921C03E04C
:1004E00013F8015B01F8015B521EF9D5A142D8D384
:1004F000002070BD70B53A4905460068884202D0B8
:10050000384A904202D1D1F8080302E03648D0F8C8
:10051000080310F4403F11D003F0EEFE0446686873
:10052000B0F5803F06D0B0F5003F03D0B0F5403FB6
:1005300027D101E0000C18E0A40822E000214FF4CC
:10054000002002F071FF044668688103890B18D10E
:1005500081140C2915D2DFE801F014060606060600
:10056000060B0D0F1113800C4000B4FBF0F408E0F3
:10057000240906E0640904E0A40902E0E40900E0BB
:10058000240A02F0D3F941F20301884208D817483F
:1005900084422868816813D821F48071816070BD1D
:1005A00013496008884204D82868816821F44071A2
:1005B000F4E71049884206D82868816821F4407120
:1005C00041F48071EAE70C4988422868816804D8C0
:1005D00021F4407141F40071E0E741F44071DDE73E
:1005E000002002400021024000600258002D31012D
:1005F000105E5F0020BCBE0040787D0110B5012474
:100600000348210302F088F900B10024204610BD00
:10061000000402580146014804F022BCEC03002407
:10062000044810B504F02EFC042801D0012010BDB0
:10063000002010BDEC03002410B500F015F80128CF
:1006400001D0022010BD074804F098FC040006D138
:1006500004484FF4804104F061FA00B101242046BF
:1006600010BD0000EC03002408B501208DF8000047
:10067000FFF7C4FF10B900208DF800009DF80000BE
:1006800008BD000038B50024009313460A46014611
:10069000034804F071FD00B10124204638BD00007C
:1006A000EC03002438B50024009313460A460146A3
:1006B000034804F043FE00B10124204638BD000089
:1006C000EC030024FEE70000214A30B5136823F054
:1006D000010313601F4A1368C3F30B140123A4F52D
:1006E0004065243D06D01268C2F30B12A2F54064A7
:1006F000273C17D1184A1268A2B9184A14684FF05B
:100700008A45B5EB045F18D01468C4F30B04A4F554
:100710008065833D11D01268C2F30B02A2F580649C
:10072000853C0AD00E4A93609368002BFCD1106080
:100730001068884209D0002030BD0A4A136013684F
:10074000002BFCD1074A083AF1E7012030BD000038
:10075000002000E000ED00E0002004E00010005C5C
:1007600000300240084C0258014801F0DBB900009B
:1007700068060024014801F0D5B90000E006002415
:10078000014800F0EBBD000054020024294A016832
:1007900091423AD0274A1832914236D0254A303217
:1007A000914232D0234A483291422ED0214A6032BF
:1007B00091422AD01F4A7832914226D01D4A903267
:1007C000914222D01B4AA83291421ED01A4A91422D
:1007D0001BD0194A1832914217D0174A3032914231
:1007E00013D0154A483291420FD0134A60329142D9
:1007F0000BD0114A7832914207D00F4A9032914281
:1008000003D00D4AA832914211D1CAB21823103A2E
:10081000B2FBF3F26FF30901032A02F00703074A60
:10082000D25CC26500D9091D81650846704721F078
:10083000FF01F9E71000024010040240A089019076
:1008400030B5224A012301689142CAB21BD01F4C25
:100850001434A14217D01D4C2834A14213D01B4C94
:100860003C34A1420FD0194C5034A1420BD0174C4C
:100870006434A14207D0154C7834A14203D0134C04
:100880008C34A1420CD11421114C083AB2FBF1F185
:100890000F4A803201F01F0504EB8101AB4010E0EC
:1008A0000C4D1824103A0D44B2FBF4F1A82D00D8D9
:1008B0000831094A01F01F0402EB8101064AA340F6
:1008C0008032603080E80E0030BD000008540258CD
:1008D00000580258F0FBFDBF0008024010B5027935
:1008E000531E072B2DD8174C0168A1421BD0154C65
:1008F0001434A14217D0134C2834A14213D0114C08
:100900003C34A1420FD00F4C5034A1420BD00D4CBF
:100910006434A14207D00B4C7834A14203D0094C77
:100920008C34A14203D10849074C443102E0074905
:10093000064C443104EB8202C0E91B21012199409D
:10094000416710BD08540258FC580258FC08024088
:1009500010B583694FF0C074826A0146002053B11C
:10096000B3F5005F15D072B1012A0CD0022A0AD06B
:10097000032A09D104E01AB1012A06D0022A03D1C0
:10098000C96AC90100D5012010BDC96AA142FAD0C7
:1009900010BD002AF7D0012AF2D0022AF3D0032A90
:1009A000F3D010BD7047102001F093BE72B6FEE781
:1009B000002200F001B800000E4B70B505465C7ACD
:1009C0000120002C14D15E7A03F108009C555E7A58
:1009D00003EB860675605D7A2A54587A421C5A7277
:1009E0003A232F22303008704B7020468A70CC702A
:1009F00070BD000058070024014804F020B8000032
:100A0000BC020024F0B5D1E90843CD690A68C2B13F
:100A10000268254322F4F84213431D430560D1E9DF
:100A20000125D1E903364C692A4345683343896976
:100A30001A43EB0B2243DB030A431A4342600020B4
:100A4000F0BDD1E9012ED1E9036CD1E9057142EA8B
:100A50000E0246EA0C0632433A430A4301682A432F
:100A600022431A436FF30E010A430260E7E742692B
:100A700043F6FE739A4342EA410141610020704708
:100A800070B591E81C00C9686FF01F0506691A432C
:100A900005EB441444EA41210A4306EA45431A435C
:100AA0000261002070BD00002DE9F04F8B8A6FF0CD
:100AB0000F05264C4FF07F4BD1F80C9004EB0353FD
:100AC0006FF0FF044FEA042A1AB386684FEA09322E
:100AD0001F4FA2F580521A433E4032438260D1E953
:100AE00000278E68521E05EB07150F8A2A43C5683A
:100AF00004EB06240E7E0AEB074322431A430BEB5A
:100B000006610A4305F070431A43C2600020BDE845
:100B1000F08F91E804110F4E521E0F8A05EB081555
:100B20002A4304EB0C2C06EB09350E7E42EA0C023C
:100B30002A4385680AEB074422431A430BEB0661FC
:100B40000A4305F070431A438260DFE70000F0FFBC
:100B5000FF0F0FFF00F0FFFF2DE9F84F4FF0000BE4
:100B60000446E54E0D46CDF800B05F4690F85000C3
:100B7000DFF888A3012808D04FF0010984F85090CD
:100B8000206805F0CFFC18B169E10220BDE8F88FBC
:100B900021682868CA69030328D090FAA0F0B0FA47
:100BA00080F000BF00F01F0309FA03F00243CA619E
:100BB000D5E900124FF00C0C20681F23C1F38461AB
:100BC0000CEA921C02F01F02604493409140026BB9
:100BD0009A430A430263206805F0A4FC804620681B
:100BE00005F09CFC58EA000003D07FE0C0F384606D
:100BF000D8E72068AA68296805F098FCC049096808
:100C0000B9EB117F06D121686869C968C1F3820117
:100C1000490008E02068C168C906C1686869F5D55F
:100C200001F0100149088840296904292ED0226862
:100C30002B6802EB810103F0F8420B6E024303F0D4
:100C4000004010430866697E22682869012917D090
:100C50005FF0000102EB8000026E22F000420A43C6
:100C60000266287E21682A6901280CD000200B69C1
:100C700002F01F02904023F4F04202430A6135E083
:100C80004FF00041E6E74FF40060F0E72068297874
:100C9000026E02F0F842B2EB816F03D1016E21F0D7
:100CA0000041016620682978426E02F0F842B2EBFA
:100CB000816F03D1416E21F000414166206829789F
:100CC000826E02F0F842B2EB816F03D1816E21F0A7
:100CD0000041816620682978C26E02F0F842B2EBCA
:100CE000816F03D1C16E21F00041C1662068816827
:100CF00011F0010F76D150F8C02F95F80CC0814B40
:100D000029680CF0180C23FA0CF3C1F313080B40FC
:100D100022EA08021A4302607B48E968814277D1DF
:100D2000286801031BD090FAA0F1B1FA81F1491CA7
:100D300001F01F0109294FEA003131D8002911D0F3
:100D400090FAA0F1B1FA81F101F1010101F01F0166
:100D500009FA01F209D100BFC0F3846109E0C0F3D0
:100D60008461E4E7C0F38461EEE790FAA0F1B1FAA0
:100D700081F101F1010101F01F0142EA816102D11B
:100D8000C0F3846003E090FAA0F0B0FA80F000F1C4
:100D9000010000F01F0000EB400041EA005133E089
:100DA00000290ED090FAA0F1B1FA81F101F1010110
:100DB00001F01F0109FA01F206D100BFC0F38461FE
:100DC00006E0C0F38461F1E790FAA0F1B1FA81F195
:100DD00001F1010101F01F0142EA816103D1C0F379
:100DE000846004E040E090FAA0F0B0FA80F0474A56
:100DF00000F1010000F01F0000EB400002EB00508A
:100E000041EA000141F00071AA68206805F08EFBFC
:100E1000D5F800C0BCF1000F26DA3D4B20683D49F3
:100E2000DFF8F490984201D0B04201D10A4600E0C8
:100E30004A469268984202F0E07201D0B04209D16D
:100E40009D68D6F8088005F0010508F0010845EA1C
:100E5000080503E0DAF8085005F0010545B1606DBA
:100E6000012740F020006065384684F850B08DE6D8
:100E70002A4DAC451CD115021AD45045F4D19842E4
:100E800002D0B04200D049468B6842F4000023F003
:100E9000E07202438A60234921480968B1FBF0F0FF
:100EA0004000801C00E0401E00900028FBD1DBE7E2
:100EB0001D4DAC450CD1D5010AD45045D4D1984232
:100EC00002D0B04200D049468B6842F080700EE0FC
:100ED000164DAC45C8D15502C6D45045C4D1984230
:100EE00002D0B04200D049468B6842F4800023F023
:100EF000E07202438A60B7E70021024000600258B6
:100F00000010005CFFFF0F000000FF47000020FE04
:100F1000002002400023024000630258000084CBFE
:100F2000400D03001C000024000052C70000B8CF91
:100F3000F8B54FF0000604003546009602D0606D0B
:100F400010B107E00120F8BD204600F005F9A665C4
:100F500084F8506020688168C1F3407119B18168DC
:100F6000704A1140816020688168C1F3007181B9C5
:100F700081686D4A114041F0805181606C496B4835
:100F80000968B1FBF0F0401C00E0401E0090002812
:100F9000FBD120688168C1F3007141B9616D012501
:100FA00041F010016165A16D41F00101A16505F0FD
:100FB000B9FA616DC90600D420B1606D012540F019
:100FC000100093E0606D20F4807040F002006065D6
:100FD0002068816811F0010F1FD1564A564B90428C
:100FE00001D0984207D191689E6801F0010106F096
:100FF0000106314303E05149896801F0010161B9FB
:10100000904201D0984201D14D4800E04D4882689D
:10101000616822F47C120A43826001F087FC41F28D
:101020000301884202D9A06810280CD0617D227F7C
:10103000A368206B490341EA024118430843217F1A
:1010400001290CD010E0607D227F216B400340EA33
:10105000024241F01000104340F00C00EFE7218CF9
:10106000394A02EB41410843616A29B1A26A01F49D
:101070007871014342EA01002168344BCA681A4082
:101080000243CA60206805F04DFA0646206805F064
:1010900045FA30431DD1216844F20303267DE26AFC
:1010A000C86842EA863298431043C86094F8380012
:1010B00001281ED02068016921F00101016120682A
:1010C000626B016921F07041114301612046FFF715
:1010D00011FAE068012820681CD0016B21F00F0193
:1010E0000163606D20F0020040F001006065284659
:1010F000F8BD2068A28F164FD4E9101C154E07EBDF
:101100000247A36C026941EA0C013B433240194398
:101110001143D3E7A269016B521E21F00F01114365
:10112000DEE70000C0FFFF5FC0FFFF7F400D030050
:101130001C000024002002400021024000600258F0
:1011400000230240006302580000FEFF03C0F0FFCE
:101150000100FFFF1EF800FC006882B00D498842C4
:1011600016D10D48016841F080710160016801F0FD
:1011700080710091016841F004010160006800F095
:10118000040000904FF0006002B0014604F0DEBAA7
:1011900002B0704700600258E0440258F0B50446BF
:1011A000C8074FF0000010D01E23012603F01F07D0
:1011B00006FA07F50D4201D15B1EF7D27AB1082A73
:1011C0000BD0102A06D0182A01D00120F0BD072B21
:1011D000FBD204E0082BF8D201E0102BF5D22368F3
:1011E000596121688B6823F0180313438B60F0BDAD
:1011F00010B5040010D0607F20B900202077204671
:1012000000F032F821790220607739B1D4E9021276
:101210002046FFF7C3FF48B1012010BD21681148E7
:1012200048612068816821F0180181606079A0B16F
:10123000216820690861012220686369816821F0C2
:101240006001194381602068A369816821F08001F1
:10125000194381606277002010BD21684FF0FF3094
:10126000E8E70000B71DC10408B5006806498842D8
:1012700008D10648016841F400210160006800F4CB
:101280000020009008BD0000004C0258E0440258C5
:1012900070470000F0B590F86020012A22D0C1EB21
:1012A000C102012780F86070022380F8613000EBF2
:1012B0008202284D138F168EB2F83CC0D46A1B05EB
:1012C000283244EA064643EA4C530A2C46EA03060F
:1012D0000AD0092C08D0137B46EA036349B10B2CD2
:1012E0001AD01DE00220F0BDD36803F07F433343E2
:1012F000F4E701684C6AAC431C434C620168136814
:101300008B6151680A2901D009291BD1D168026873
:1013100021F07F41916215E0118B0F4D43EA81432B
:101320000168CC69AC431C43CC61016813680B6154
:1013300051680A2901D0092904D1D168026821F035
:101340007F411162002180F8617080F860100846CA
:10135000F0BD00000F0033FF0F003FFF2DE9F04705
:101360000446006800274FF004084FF00109466862
:101370000568F10714D0E90512D5036823F48073DA
:101380000360606E40F0010060662068C0F808905D
:1013900084F8618084F86070616A09B120468847EA
:1013A000B00615D5A80413D520682022036823F4BD
:1013B0000053036020688260606E40F00200606647
:1013C00084F8618084F86070616A09B120468847BA
:1013D000300715D5280513D520680822036823F4A3
:1013E0000063036020688260606E40F00400606605
:1013F00084F8618084F86070616A09B1204688478A
:1014000070070CD568050AD52068026822F480624E
:1014100002602068C0F80880204600F071F8B0072C
:1014200013D5A80511D520680222036823F40073A0
:10143000036020688260606E606684F8619084F862
:101440006070216A09B120468847F00612D5E80489
:1014500010D52068016821F48051016022681021B4
:101460009160616E616684F86190204684F86070D6
:10147000FFF70EFFBDE8F0872DE9F041040004D02E
:1014800094F86100002518B107E00120BDE8F08163
:10149000204684F8605000F035F8184E022084F899
:1014A00061000123D4E90010D4F81CC040F20712F7
:1014B0000F6840EA0C003740384308602068A7698D
:1014C000A168466B39439643314341632068E26823
:1014D000016C6FF30F01114301642068218AA28A15
:1014E000466B090541EA425126F44012114341631B
:1014F000656684F861300020C8E70000BFFFF8FF90
:101500007047000008B500680B49884212D10B48AB
:10151000016841F01001016000680022114600F0EE
:10152000100000905A2001F029FDBDE808405A2023
:1015300001F016BD08BD000000100052D44402584E
:101540002DE9F84F044601F0F7F900903CB194F80A
:101550003500022806D0802161650020E4E00120EA
:10156000BDE8F88FC74DC74EC649183520683036DC
:10157000DFF81483DFF814938842DFF814A3DFF850
:1015800014B32ED0A8422CD0B0422AD0404528D047
:10159000484526D0504524D0584522D0BD4A18325F
:1015A00090421ED0BC4A90421BD0BB4A1832904297
:1015B00017D0B94A3032904213D0B74A48329042DD
:1015C0000FD0B54A603290420BD0B34A7832904285
:1015D00007D0B14A9032904203D0AF4AA83290422D
:1015E00009D1026822F01E0202602068426922F0DE
:1015F0008002426103E0026822F00E020260276866
:101600008F4238464DD0A8424BD0B04249D04045D9
:1016100047D0484545D0504543D0584541D09D4AD4
:10162000183290423DD09C4A90423AD09A4A1832A1
:10163000904236D0984A3032904232D0964A483260
:1016400090422ED0944A603290422AD0924A783208
:10165000904226D0904A9032904222D08E4AA832B0
:1016600090421ED08D4A90421BD08C4A1432904238
:1016700017D08A4A2832904213D0884A3C3290428E
:101680000FD0864A503290420BD0844A6432904246
:1016900007D0824A7832904203D0804A8C329742F7
:1016A00004D1206E026822F48072026075492068BD
:1016B000884228D0A84226D0B04224D0404522D02B
:1016C000484520D050451ED058451CD0714918318E
:1016D000884218D07049884215D06F491831884225
:1016E00011D06D49303188420DD06B494831884264
:1016F00009D069496031884205D06749783188420C
:1017000001D065499031016821F0010101600EE0CE
:1017100001F012F90099401A052808D920226265C3
:101720000321002084F8351084F8340017E7386866
:10173000C007EDD1534A0121206890422ED0A84223
:101740002CD0B0422AD0404528D0484526D050451C
:1017500024D0584522D04F4B183398421ED04E4BC0
:1017600098421BD04C4B1833984217D04A4B303319
:10177000984213D0484B483398420FD0464B6033C1
:1017800098420BD0444B7833984207D0424B903369
:10179000984203D0404BA833984208D194F85C702B
:1017A0003F23A06D07F01F07BB40836007E094F85C
:1017B0005C30A06D03F01F0301FA03F3436020685F
:1017C00090424DD0A8424BD0B04249D0404547D07E
:1017D000484545D0504543D0584541D02D4A183250
:1017E00090423DD02C4A90423AD02B4A1832904237
:1017F00036D0294A3032904232D0274A483290427D
:101800002ED0254A603290422AD0234A7832904224
:1018100026D0214A9032904222D01F4AA8329042CC
:101820001ED01E4A90421BD01C4A1432904217D040
:101830001A4A2832904213D0184A3C3290420FD0B4
:10184000164A503290420BD0144A6432904207D06C
:10185000124A7832904203D0104A8C3290420BD117
:10186000D4E919024260E06E30B1026822F480725D
:101870000260D4E91C024260002084F8351084F82C
:1018800034006DE610000240580002407000024033
:1018900088000240A0000240100402400854025890
:1018A0002DE9F05F28B190F83510022904D080218D
:1018B00041650120BDE8F09F904C904B0168183CB9
:1018C00018338E4ADFF83C92A1428D4CDFF838E2A3
:1018D0008E4FDFF83CB2DFF83CA28F4D8F4E31D0F7
:1018E00091422FD099422DD0A1422BD0494529D0E9
:1018F000714527D0B94225D0DFF810C20CF1180C81
:1019000061451FD0DFF808C2ACF1600C614519D009
:10191000DFF8FCC1ACF1480C614513D0DFF8F0C131
:10192000ACF1300C61450DD0DFF8E4C1ACF1180C1E
:10193000614507D0594505D0514503D0A94201D092
:10194000B1422CD1DFF8B4C14FF0040880F83580E3
:10195000ACF1180C61451DD091421BD0994219D0B1
:10196000A14217D0494515D0714513D0B94211D0C5
:101970006648183081420DD065486038814209D0F0
:1019800063484838814205D061483038814201D0EF
:101990005F481838086820F001000860ABE0D1F813
:1019A00000C02CF00E08DFF854C1C1F80080ACF183
:1019B000180C0168614527D0914225D0994223D067
:1019C000A14221D049451FD071451DD0B9421BD03D
:1019D000DFF838C10CF1180C614515D0DFF830C1C3
:1019E000ACF1600C61450FD0DFF824C1ACF1480CBC
:1019F000614509D0DFF818C1ACF1300C614503D066
:101A0000DFF80CC1ACF1180CD1F800C02CF0010CBF
:101A1000C1F800C0DFF8E4804FF0010C0168A8F1C4
:101A20001808414546D0914244D0994242D0A14243
:101A300040D049453ED071453CD0B9423AD0334AB6
:101A40001832914236D0324A603A914232D0304A0E
:101A5000483A91422ED02E4A303A91422AD02C4A0E
:101A6000183A914226D0594524D0514522D0A94256
:101A700020D0B1421ED02A4A91421BD0284A1432AB
:101A8000914217D0264A2832914213D0244A3C3240
:101A900091420FD0224A503291420BD0204A6432F8
:101AA000914207D01E4A7832914203D01C4A8C32B0
:101AB000914218D1016E0A6822F480720A6090F88F
:101AC0005C20816D02F01F020CFA02F24A60D0E93C
:101AD00019124A60C16E31B10A6822F480720A603C
:101AE000D0E91C124A600022016D80F835C080F8F0
:101AF000342001B188470020DCE6000028000240C5
:101B0000580002407000024088000240A0000240DD
:101B10007004024088040240A0040240B80402405D
:101B2000085402582DE9FC5F0446F74E0020DFF808
:101B3000D88300904FF41652F44808F11808A56DA8
:101B4000DFF8C493DFF8C0A3016809F13009206809
:101B50000AF1480AB1FBF2F1B04201912F68D5F8C1
:101B600000C0DFF8ACB335D04146884232D048459A
:101B700030D050452ED058452CD0E54918318842F8
:101B800028D0E3493031884224D0E14948318842A5
:101B900020D0E04988421DD0DE491831884219D052
:101BA000DC493031884215D0DA494831884211D0B9
:101BB000DFF860E30EF1600E70450BD0D54A783245
:101BC000904207D0D34B9033984203D0D149A831EB
:101BD00088427DD194F85C20082102F01F0201FAAE
:101BE00002F23A424AD0B04232D0404530D0484565
:101BF0002ED050452CD058452AD0C54A1832904294
:101C000026D0C34A3032904222D0C14A4832904254
:101C10001ED0C04A90421BD0BE4A1832904217D004
:101C2000BC4A3032904213D0BA4A483290420FD068
:101C3000B84A603290420BD0B64A7832904207D010
:101C4000B44A9032904203D0B24AA832904203D1B3
:101C5000026802F0040202E0026802F008026AB1BF
:101C6000026822F00402026094F85C0000F01F0099
:101C70008140A960606D40F00100606594F85C00EF
:101C8000012100F01F008140394240D02068B0425D
:101C900034D0404532D0484530D050452ED05845FC
:101CA0002CD09B4A1832904228D0994A3032904228
:101CB00024D0974A4832904220D0964A90421DD074
:101CC000944A1832904219D0924A3032904200E041
:101CD000AFE113D08F4A483290420FD08D4A603224
:101CE00090420BD08B4A7832904207D0894A90328A
:101CF000904203D0874AA83290427DD1406910F0CB
:101D0000800F04D0A960606D40F00200606594F817
:101D10005C00042100F01F00814039423ED0206861
:101D2000B04232D0404530D048452ED050452CD01E
:101D300058452AD0764A1832904226D0744A30321A
:101D4000904222D0724A483290421ED0714A90424C
:101D50001BD0704A1832904217D06E4A30329042EF
:101D600013D06C4A483290420FD06A4A6032904297
:101D70000BD0684A7832904207D0664A903290423F
:101D800003D0644AA83290424ED1006810F0020F8E
:101D900004D0A960606D40F00400606594F85C00B8
:101DA000102100F01F008140394258D02068B04215
:101DB00034D0404532D0484530D050452ED05845DB
:101DC0002CD0534A1832904228D0514A3032904297
:101DD00024D04F4A4832904220D04E4A90421DD0E3
:101DE0004C4A1832904219D04A4A3032904215D0AB
:101DF000484A4832904200E014E00FD0454A603231
:101E000090420BD0434A7832904207D0414A9032F8
:101E1000904203D03F4AA832904207D1006800F0B8
:101E2000080006E0006872E70068B7E7006800F0A5
:101E30000400A0B1A96020680168490304D50068C6
:101E4000000308D5A16C07E00168C90503D4016847
:101E500021F008010160216C09B12046884794F8FF
:101E60005C00202100F01F008140394279D02068B9
:101E7000B04232D0404530D048452ED050452CD0CD
:101E800058452AD0224A1832904226D0204A303271
:101E9000904222D01E4A483290421ED01D4A9042A3
:101EA0001BD01C4A1832904217D01A4A3032904246
:101EB00013D0184A483290420FD0164A60329042EE
:101EC0000BD0144A7832904207D0124A9032904296
:101ED00003D0104AA832904203D1006800F01000ED
:101EE00002E0006800F00200B0B3A96094F8350089
:101EF0000428206801680FD049037ED500680003DC
:101F00002BD4616C2AE00000100002401C00002469
:101F1000700002401004024021F0160101602068A8
:101F2000416921F080014161206C08B9A06C20B1A9
:101F30002068016821F00801016094F85C303F21BD
:101F4000012003F01F0300229940A96084F83500A6
:101F500084F83420216D65E003E0E16B09B120468F
:101F60008847606D00287DD0606DC00759D020681B
:101F7000042184F83510B0422BD0404529D0484583
:101F800027D0504525D0584523D09D49884220D0A0
:101F90009B49183188421CD099493031884218D069
:101FA0009849884215D097491831884211D09549EF
:101FB000303188420DD093494831884209D0914947
:101FC0006031884205D08F497831884201D08D49EF
:101FD0009031016821F00101016020680099019AA7
:101FE000491C0091914202D80168C907F6D10068E6
:101FF000C00710D003200FE0FFE70168C905ACD48B
:1020000003680121002223F01003036084F83510D7
:1020100084F83420A1E7012084F83500002084F8FA
:102020003400E16C00291DD002B02046BDE8F05F0D
:102030000847754988421DD073491431884219D028
:1020400071492831884215D06F493C31884211D0FE
:102050006D49503188420DD06B496431884209D0B6
:10206000694900E084E07831884203D066498C31C8
:1020700088427DD194F85C800427016808F01F082D
:1020800007FA08F717EA0C0F009746D04F0744D518
:1020900000980F04686003D5C8033CD4A16CC1E765
:1020A000880638D42068B0422DD05549603988421E
:1020B00029D0484527D0504525D0584523D05049F0
:1020C000884220D04E49183188421CD04C493031CA
:1020D000884218D04B49884215D04A491831884265
:1020E00011D04849303188420DD0464948318842A4
:1020F00009D0704507D0904205D0984203D041499D
:10210000A831884203D1016821F0080102E001688A
:1021100021F004010160216C84E7022707FA08F727
:1021200017EA0C0F00974ED08F074CD500980F047C
:10213000686003D5C80344D4616C73E7880640D453
:102140002068B0422FD02E49603988422BD04845B4
:1021500029D0504527D0584525D02949884222D03A
:102160002749183188421ED025493031884200E085
:1021700044E018D02349884215D0224918318842BA
:1021800011D02049303188420DD01E494831884253
:1021900009D0704507D0904205D0984203D0194924
:1021A000A831884203D1016821F0140102E00168DE
:1021B00021F00A010160012184F83510002084F823
:1021C0003400E16B2EE7082202FA08F212EA0C0F43
:1021D00014D0090712D5016821F00E01016094F8AE
:1021E0005C100120002201F01F0100FA01F169607A
:1021F000606584F8350084F8342012E7BDE8FC9F60
:102200008800024010040240085402582DE9F05F93
:10221000044600F091FB002C07467DD0E34E0221DE
:1022200020684FF00308DFF888934FF00005DFF8CF
:1022300084A3B042DFF880B334D0DC4A1832904235
:1022400030D048452ED050452CD058452AD0DA4AB7
:102250001832904226D0D84A3032904222D0D64A04
:10226000483290421ED0D54A90421BD0D34A1832F1
:10227000904217D0D14A3032904213D0CF4A4832E0
:1022800090420FD0CD4A603290420BD0CB4A783288
:10229000904207D0C94A9032904203D0C74AA83230
:1022A00090427DD184F83510B04284F834502ED05D
:1022B000BE49183188422AD0484528D0504526D0FA
:1022C000584524D0BC491831884220D0BA49303111
:1022D00088421CD0B8494831884218D0B749884252
:1022E00015D0B6491831884211D0B44930318842EE
:1022F0000DD0B2494831884209D0B0496031884296
:1023000005D0AE497831884201D0AC49903101689E
:1023100021F00101016008E027E100BF00F00CFBA3
:10232000C01B052801D920211CE120680068C007D6
:10233000F4D104F108002168D4E9053C8E4685C833
:1023400009681043D4E907281F43636A38439C4F48
:1023500040EA0C001043394040EA0800042B40EAF0
:10236000010003D1D4E90B121143084395490968D0
:102370006FF30F01B1F1005F0FD36168A1F1290282
:10238000052A08D9163A032A05D9083A012A02D99A
:102390004F39032901D840F48010CEF8000000E046
:1023A00023E02068676A4069042F20F0070047EAAD
:1023B00000070DD1D4E90A01074349B12046FEF7D1
:1023C000C7FA28B140206065012184F83510CCE0BF
:1023D000206847612046FEF7D9F994F85C203F2138
:1023E00002F01F029140816054E0774A90421BD076
:1023F000754B1433984217D0734B2833984213D03F
:10240000714B3C3398420FD06F4B503398420BD0F6
:102410006D4B6433984207D06B4B7833984203D0AE
:10242000694B8C3398427DD184F8351084F8345050
:10243000664B0168A26801EA030E402A73D0802A25
:1024400072D00022D4E90378D4E9053142EAD702F8
:1024500042EAD8085C4AD4E9077C48EAD30848EA4B
:10246000D10141EAD701524241EA1C11142341EA49
:102470000E01016020681044B0FBF3F08000E065BD
:102480002046FEF783F994F85C20012102F01F0238
:10249000914041602068B04257D044491831884289
:1024A00053D0484551D050454FD058454DD0424962
:1024B0001831884249D040493031884245D03E49A0
:1024C0004831884241D03D4988423ED03B4918318D
:1024D00088423AD039493031884236D0374948317C
:1024E000884232D03549603188422ED03349783124
:1024F00088422AD031499031884226D02F49A831CC
:10250000884222D0304988421FD02F491431884256
:102510001BD02D492831884217D02B493C318842A5
:1025200013D002E01DE017E018E02749503188423F
:102530000BD025496431884207D02349783188423D
:1025400003D021498C31884229D12046FEF778F901
:10255000A06880280CD00CE0102273E74FF4804272
:1025600070E74021616584F835800120BDE8F09F67
:102570006560216E20790860D4E9190141606068C6
:10258000401E072808D82046FEF7A8F9E06E05602F
:10259000D4E91C01416002E0E5662567656701201A
:1025A000656584F835000020E0E700001000024077
:1025B00040000240580002407000024010040240F7
:1025C0003F8010FE0010005C085402580F00FEFF10
:1025D00070B5044600F0B0F90546601C02D004480E
:1025E0000078044400F0A8F9401BA042FAD370BD63
:1025F00010000024F0B587B014216846FDF7C5FE31
:102600002B480168002951D1012101602948016846
:1026100041F480510160006802240027694600F4FB
:10262000805005904FF683700C258DE891000326AD
:102630002148CDE9036500F059F848F237106946A2
:102640008DE891001D48CDE9036500F04FF84CF28C
:10265000037069468DE891001948CDE9036500F0E3
:1026600045F84FF63F0069468DE891001548CDE9E1
:10267000036500F03BF8CDE9005402976946124823
:10268000CDE9036500F032F820206946CDE9000469
:102690000E48CDE90246049500F028F800223020CB
:1026A000114600F06BFC302000F05AFC07B0F0BD82
:1026B00000000024D44402580010025800180258A8
:1026C000000C02580014025800080258001C02585E
:1026D00070474FF0B04110B5D1F88820024203D0C6
:1026E000C1F88800FFF7F4FF10BD00002DE9F84F96
:1026F00003247D4D00234FF001094FF0B04B4FF004
:102700000F0AE9E009FA03F73A4076D00E7906F0AD
:102710000306012E01D0022E18D1D0F808C04FEACE
:10272000430ECE6804FA0EF82CEA080C06FA0EF6F0
:1027300046EA0C068660D0F804C00E792CEA070C35
:10274000C6F300169E4046EA0C0646600E79F64334
:10275000B6070BD0C6684FEA43088F6804FA08FC36
:1027600026EA0C0607FA08F73743C7600E7906F029
:102770000306022E12D1DE080F694FEA437C00EBFC
:102780008606B646366A4FEADC6C0AFA0CF807FA97
:102790000CF726EA08063743CEF820700F79066852
:1027A0004FEA430807F0030704FA08FC07FA08F7A2
:1027B00026EA0C06374307604E6816F4403F1CD0EB
:1027C0004A4E376847F00207376036689F0706F0C1
:1027D0000206009623F0030606F1B046B6463F0F08
:1027E000D6F80864DFF808810AFA07FC404526EAB3
:1027F0000C0603D14FF0000C41E06CE0DFF8F4C0B0
:10280000604502D14FF0010C39E0DFF8ECC06045C3
:1028100002D14FF0020C32E0DFF8E0C0604502D197
:102820004FF0030C2BE0DFF8D8C0604502D14FF029
:10283000040C24E0DFF8CCC0604502D14FF0050C59
:102840001DE0DFF8C4C0604502D14FF0060C16E071
:10285000DFF8B8C0604502D14FF0070C0FE0DFF899
:10286000B0C0604502D14FF0080C08E0DFF8A4C00A
:10287000604502D14FF0090C01E04FF00A0C0CFA50
:1028800007FC4CEA060CCEF808C44F68DBF8006081
:10289000FF0226EA020600D516435F46CBF8006029
:1028A000D1F804C0DBF804605FEA8C2C26EA02064B
:1028B00000D516437E606E684F6826EA0206BF03A5
:1028C00000D516436E602E684F6826EA0206FF03A5
:1028D00000D516432E605B1C0A6832FA03F67FF4BB
:1028E00011AFBDE8F88F000080000058F444025892
:1028F000000002580004025800080258000C025858
:10290000001002580014025800180258001C025807
:1029100000200258002402580069084000D001201D
:1029200070470AB1816170470904FBE701480068FC
:10293000000C70470010005C014880687047000080
:102940001000002430B590F84120202A24D190F8BE
:102950004020012A20D0012380F84030242280F832
:102960004120202300240268156825F00105156028
:102970000268156825F480551560026815680D43D6
:10298000156001680A6842F001020A6080F841306F
:1029900080F84040002030BD022030BD30B590F8B6
:1029A0004120202A22D190F84020012A1ED0012364
:1029B00080F84030242280F841202024002502683D
:1029C000136823F0010313600268136823F4706333
:1029D00043EA0121116001680A6842F001020A60BD
:1029E00080F8414080F84050002030BD022030BDCA
:1029F00070B5040004D094F84100002510B106E041
:102A0000012070BD204684F8405000F04DF824208D
:102A100084F841002068016821F001010160D4E9D7
:102A2000001020F0706008612068816821F4004186
:102A30008160E06821680128A06806D040F4044065
:102A40008860E068022803D006E040F40040F7E721
:102A500021684FF40060486020212068114A4368D3
:102A6000134343602068C26822F40042C26054F8F5
:102A7000106B0DCC104340EA0320F06054F81C3C6E
:102A8000D4E900021043186054F81C0D026842F0AB
:102A900001020260656484F84110256384F84250A5
:102AA000002070BD0080000210B586B004461421DD
:102AB0006846FDF76AFC13492068884220D1124815
:102AC000016841F00201016000680423122200F055
:102AD0000200059000204FF4407100916946CDE955
:102AE0000120CDE903030948FFF700FE064808303E
:102AF000016841F400110160006800F400100590C5
:102B000006B010BD00540040E044025800040258D2
:102B100002488168027811448160704710000024E7
:102B2000032010B500F04AFA01F02CFC0F4A1049BE
:102B300014681368C4F3032203F00F038A5CC95CB2
:102B400002F01F0201F01F01D0400A4A20FA01F1F1
:102B50001160094908600F2000F010F808B1012049
:102B600010BD00F0EFF9002010BD0000184402581D
:102B7000D0890190200000241C00002470B50D4D68
:102B800004462878A0B14FF47A71B1FBF0F00A49FD
:102B90000968B1FBF0F002F0E1FD48B9102C07D252
:102BA00000222146501E00F0E9F900206C6070BD43
:102BB000012070BD100000241C0000242DE9F0410C
:102BC000044690F8A00016460F4601281DD00125A6
:102BD00084F8A050022084F8A10006EB860000EBE8
:102BE000C600342204EB80003830FDF7A6FB3246E5
:102BF0003946204603F0B6FC216800204D6284F877
:102C0000A15084F8A000BDE8F0810220FBE77047E6
:102C10002DE9F0410446006800274FF00408856B59
:102C2000466B690715D5710713D5426B22F0040274
:102C300042632068C0F83C80D4F8A40040F0010052
:102C4000C4F8A40084F8A180204684F8A070FFF79F
:102C5000DEFFA80716D5B00714D520680222436B03
:102C600023F0020343632068C263D4F8A40040F059
:102C70000200C4F8A40084F8A180204684F8A07063
:102C8000FFF7C5FF05EA06004FF00108C0070ED0A8
:102C900021684A6B22F001024A632168C1F83C8036
:102CA00084F8A180204684F8A07000F091F82807ED
:102CB00010D530070ED520680822436B23F0080397
:102CC00043632068C26384F8A180204684F8A07022
:102CD00000F036F9BDE8F0812DE9F041040004D0A0
:102CE00094F8A100002518B107E00120BDE8F081AB
:102CF000204684F8A05000F09BF83448022184F864
:102D0000A110012202CC8B6923F070438B6194E8FF
:102D10004A001943E3681E4354F8043D31439E6959
:102D20003143996121688B6803408B602168A68AD2
:102D3000A7698B683B4343EA06438B602168CB68F5
:102D40000340CB602168A38B276ACE683E4346EAE6
:102D50000346CE6021680B6903400B612368A68C93
:102D6000A76A1969394341EA0641196121684B692B
:102D700003404B612068A38D266B4169314341EAD2
:102D800003414161236894F8351094F83600DE6AF7
:102D9000000406F07F46DE62236840EA012094F8D2
:102DA0003460D96A31430143D9622068416B41F0F4
:102DB000060141632068816941F001018161C4F825
:102DC000A45084F8A120002090E7000000F800F053
:102DD00010B5144C2168002923D01349134A0B6CF9
:102DE00011888B4212D1518800F088F8206890F841
:102DF0006A10491C80F86A1006F040FB206809F050
:102E000023F9BDE8104000200AF043B900F076F83D
:102E100020680168096A8847BDE8104000200AF070
:102E20003AB910BDA0010024001000503000002469
:102E3000F0B587B0044614216846FDF7A6FA2A4982
:102E4000206888424DD12948016841F0080101609D
:102E5000006800F0080005902448001F016841F454
:102E600080610160016801F480610591016841F4AD
:102E700000710160016801F400710591016841F47D
:102E800080710160006802240025694600F48070AA
:102E9000059003260E27FF208DE8F1001448FFF768
:102EA00025FC4FF6FE7069468DE8F1001148FFF7EA
:102EB0001DFC4FF4704069468DE8F1000E48FFF7A5
:102EC00015FC00220C21582000F058F8582000F082
:102ED00047F800225920114600F050F8592000F020
:102EE0003FF807B0F0BD000000100050E444025865
:102EF00000280258002402580020025870B590F8AB
:102F0000A020012A18D00D4D012380F8A030022204
:102F100080F8A120002450F8A02B566B26F0010663
:102F20005663296450F8A01C4A6B42F001024A63C0
:102F300043700470204670BD022070BD0010005028
:102F400070470000054808B5016841F002010160C2
:102F5000006800F00200009008BD0000F444025830
:102F6000002809DB410900F01F028900012001F15E
:102F7000E0219040C1F80001704700000E4BF0B412
:102F80001B680D46C3F30223C3F10706042E00D9C4
:102F90000426191D072901D2002300E0DB1E0124AD
:102FA00004FA06F19C40491E2940641E99401440D1
:102FB0002143F0BC14F05CBF0CED00E0064900F0CA
:102FC000070210B54FF6FF040868044B204040EAA2
:102FD00002201843086010BD0CED00E00000FA0567
:102FE000134970B50A68D243520705D5096801F044
:102FF0000701814213D118E00A6822F00702024358
:103000000A60FFF799FC0A4D4FF47A760446083DB2
:1030100007E000BFFFF790FC001BB04201D9012080
:1030200070BD2868C0438004F4D4002070BD000047
:103030000C48025810B501F05FF905490968054AC6
:10304000C1F30211515C01F01F01C84010BD000026
:1030500020440258D08901904A4930B5494C0B1D93
:103060000A680C3409681D68246802F0030305F03F
:103070000102C1F30511C4F3CC04002914FB02F2D0
:1030800000EE102AF8EE400A76D0414A9FED3E1A33
:10309000DFED3E1AB7EE000A23B1012B5AD0022B06
:1030A00018D15CE0374C283C23689B0612D5394B7D
:1030B000246801EE901A1168C4F3C104F8EE612A85
:1030C000E34001EE903AC1F30801F8EE611A81EE97
:1030D000A22A07E002EE101A1168F8EE422A81EEE9
:1030E000A22A45E001EE901A1168F8EE611A40EE4E
:1030F000811A71EE800A62EE200AC1F3462101EEC8
:10310000101AB8EE411A31EE001AC0EE811ABCEE68
:10311000E11A80ED001A1168C1F3064101EE101AA0
:10312000B8EE411A31EE001AC0EE811ABCEEE11A77
:1031300080ED011A1168C1F3066101EE101AB8EEB4
:10314000411A31EE000A80EE801ABCEEC10A80ED11
:10315000020A30BD01EE901ADFED0F2A03E001EE06
:10316000901ADFED0E2A1168F8EE611A82EEA12A9C
:10317000C1F30801B6E7FFE700210160416081600B
:1031800030BD000028440258000000390024744C6F
:10319000304402580090D0030024744A20BCBE4B37
:1031A000494930B5484C0B1D0A68143409681D683C
:1031B000246802F00303C5F30012C1F30531C4F320
:1031C000CC04002914FB02F200EE102AF8EE400AAB
:1031D00075D03F4A9FED3D1AB7EE000A6BB1DFEDA7
:1031E0003D1A012B01D0022B64D002EE101A116897
:1031F000F8EE422A81EEA22A21E0334C283C2368D3
:103200009B0612D5344B246801EE901A1168C4F362
:10321000C104F8EE612AE34001EE903AC1F30801DF
:10322000F8EE611A81EEA22A0BE001EE901ADFEDB2
:103230002B2A00BFF8EE611A116882EEA12AC1F3B1
:10324000080101EE901A1168F8EE611A40EE811A39
:1032500071EE800A62EE200AC1F3462101EE101AD7
:10326000B8EE411A31EE001AC0EE811ABCEEE11A36
:1032700080ED001A1168C1F3064101EE101AB8EE94
:10328000411A31EE001AC0EE811ABCEEE11A80ED4F
:10329000011A1168C1F3066101EE101AB8EE411A65
:1032A00031EE000A80EE801ABCEEC10A80ED020AFF
:1032B00030BD04E001EE901ADFED092ABAE70021E3
:1032C000016041608160F3E7284402580000003942
:1032D000384402580024744A0090D0030024744CEF
:1032E00020BCBE4B494930B5484C0B1D0A681C3404
:1032F00009681D68246802F00303C5F30022C1F3C6
:103300000551C4F3CC04002914FB02F200EE102A8C
:10331000F8EE400A75D03F4A9FED3D1AB7EE000A1D
:103320006BB1DFED3D1A012B01D0022B64D002EE10
:10333000101A1168F8EE422A81EEA22A21E0334CDD
:10334000283C23689B0612D5344B246801EE901A62
:103350001168C4F3C104F8EE612AE34001EE903A2B
:10336000C1F30801F8EE611A81EEA22A0BE001EE2A
:10337000901ADFED2B2A00BFF8EE611A116882EE79
:10338000A12AC1F3080101EE901A1168F8EE611A42
:1033900040EE811A71EE800A62EE200AC1F34621E6
:1033A00001EE101AB8EE411A31EE001AC0EE811A81
:1033B000BCEEE11A80ED001A1168C1F3064101EE7E
:1033C000101AB8EE411A31EE001AC0EE811ABCEEA6
:1033D000E11A80ED011A1168C1F3066101EE101ABD
:1033E000B8EE411A31EE000A80EE801ABCEEC10A36
:1033F00080ED020A30BD04E001EE901ADFED092AEB
:10340000BAE70021016041608160F3E72844025877
:1034100000000039404402580024744A0090D00350
:103420000024744C20BCBE4B2DE9F04FAC4A05463D
:10343000DFF8A8A280F48070DFF8AC9289B0131195
:10344000AA4C0843A748AAF104064FF0805C4FF04D
:1034500000582CD085F400770F4357D0DFF87CB2AA
:1034600085F480670F430BF1080B61D085F400678A
:103470000F4374D085F480570F436ED085F4005706
:103480000F434FF480394FF4003E67D085F4002796
:103490000F4371D085F480370F436ED085F480469A
:1034A0000E436BD085F400420A4368D02AE0DAF874
:1034B000001001F00701052924D2DFE801F075BCF6
:1034C0007D25B10006A8FFF7C7FD079809B0BDE844
:1034D000F08F6846FFF764FE0098F7E703A8FFF750
:1034E00001FF0398F2E72068C0F3C10022FA00F060
:1034F000ECE72268D20571D561456FD11846E5E742
:103500004145E3D00020E1E74846DFE7DAF8001064
:1035100001F4E07180294FD004DC002944D0402917
:10352000F0D188E0C029EFD0B1F5807FEAD177E013
:10353000DBF8001001F46001B1F5800F3CD004DC31
:1035400091B3B1F5001FDDD175E0B1F5C00FDBD04F
:10355000B1F5000FD6D163E001E018E030E0DBF810
:10356000001001F0E061B1F1007F25D008DCD9B195
:10357000B1F1807FC6D15EE049E06CE079E09CE08B
:10358000B1F1407FC0D0B1F1806FBBD148E0DAF833
:10359000001001F4E041B1F5005F0DD005DC19B178
:1035A000B1F5805FAED146E094E0B1F5405FABD0BD
:1035B000B1F5804FA6D133E020688000A2D58DE719
:1035C000DAF8001001F4E021B1F5403F6CD006DCE0
:1035D00061B149457AD0714594D157E037E0B1F5F2
:1035E000802F65D0B1F5A02F8CD10CE000F0A6FEA5
:1035F0006CE76846FFF7D4FD019867E703A8FFF77B
:1036000071FE049862E721688903F1D47AE7DBF858
:10361000001011F440310ED0494510D07145F5D15C
:103620003168256801F040516D077FF562AF0029D0
:103630007FF45FAF57E720680001E7D549E72068CE
:103640008000E3D503A8FFF74DFE05983EE722680A
:103650009203DBD554E7306810F480303AD0484507
:10366000D4D120680001D1D56846FFF799FD0298B2
:103670002CE7DBF8001001F0E041B1F1405F13D01E
:1036800008DC71B1614521D04145BFD1206880007F
:10369000B4D437E7B1F1804F0AD0B1F1A04FB2D026
:1036A00030E7FFF7C7FC11E720684007AED51AE7FF
:1036B0002068C005AAD521E708E0DAF8001011F06B
:1036C0004051A0D0614505D041459FD120680001FF
:1036D0008FD417E72068800198D5F3E6504402584C
:1036E0000090D00340787D010080BB000044025868
:1036F0002DE9FE4F0546DFF8E48350F8081B00244F
:10370000F64FC943019005F12800264608F1240828
:10371000009008011DD4A86E50B1B0F5801F0CD0E8
:10372000B0F5001F0ED0B0F5401F1ED001240FE0F1
:10373000386840F40030386017E00198022103F047
:10374000C5FB03E00098022103F050FC04000CD0FC
:1037500026462888C043C00523D4A86D05281ED25C
:10376000DFE800F00C11161B1B00AA6ED8F8001041
:1037700021F440111143C8F80010EAE7386840F41A
:103780000030386009E00198002103F09FFB03E05E
:103790000098002103F02AFC044674B100E00124E3
:1037A00026462888C043800528D4E86D80281ED08E
:1037B0000CDC90B140280ED114E0AA6DD8F80010AE
:1037C00021F007011143C8F80010EAE7C02813D020
:1037D000B0F5807F10D001240FE0386840F400304D
:1037E000386009E00198002103F070FB03E00098C5
:1037F000002103F0FBFB04469CB126462888DFF835
:10380000DC92C04309F12C0940052CD4D5F8A8005E
:10381000B0F5800F20D00DDCA0B1B0F5001F0FD1A6
:1038200015E0EA6DD8F8001021F4E0711143C8F8F2
:103830000010E3E7B0F5C00F13D0B0F5000F10D0C3
:1038400001240FE0386840F40030386009E0019846
:10385000002103F03BFB03E00098002103F0C6FBCE
:1038600004467CB126462888C04300052DD4D5F8EF
:10387000AC00B0F1007F21D00EDCA8B1B0F1807FA8
:1038800010D116E0D5F8A820D9F8001021F4600175
:103890001143C9F80010E6E7B0F1407F13D0B0F152
:1038A000806F10D001240FE0386840F40030386099
:1038B00009E00198002103F009FB03E000980021D2
:1038C00003F094FB044674B126462868C043800187
:1038D0001FD4E86CD8B110280FD0202812D030287F
:1038E00015D0012414E0D5F8AC20D9F8001021F04F
:1038F000E0611143C9F80010E7E7386840F4003090
:10390000386004E00198022103F0E0FA044674B143
:1039100026462888C043C0042BD4286EB0F5005F2B
:1039200020D00DDCA0B1B0F5805F0FD115E06B4861
:10393000EA6C2030016821F0300111430160E8E7B2
:10394000B0F5405F13D0B0F5804F10D001240FE0E8
:10395000386840F40030386009E00198002103F035
:10396000B5FA03E00098002103F040FB04468CB157
:1039700026462888C043800429D4686EB0F5403FAD
:1039800023D010DC08B3B0F5803F14D0B0F5003F71
:103990000FD115E02A6ED8F8001021F4E041114350
:1039A000C8F80010E5E7B0F5802F0ED0B0F5A02FD5
:1039B0000BD001240AE00198012103F087FA03E00B
:1039C0000098012103F012FB044694B12646288892
:1039D000C04340042AD4D5F8B000B0F1405F23D0F2
:1039E00010DC08B3B0F1805F14D0B0F1005F0FD1EC
:1039F00015E06A6ED8F8001021F4E0211143C8F8F0
:103A00000010E4E7B0F1804F0ED0B0F1A04F0BD022
:103A100001240AE00198012103F058FA03E000981C
:103A2000012103F0E3FA044674B126462888C04316
:103A300000041FD4286FD8B1B0F1805F0ED0B0F170
:103A4000005F10D0012414E0D5F8B020D9F80010A0
:103A500021F0E0411143C9F80010E7E7386840F46D
:103A60000030386004E00198012103F02FFA044689
:103A700074B126462868C043C0011ED4A86CD0B1DA
:103A800001280ED0022811D0032814D0012413E0FD
:103A90002A6FD8F8001021F040511143C8F80010E7
:103AA000E8E7386840F40030386004E0019802210B
:103AB00003F00CFA0446ACB126462868DFF81CB0C7
:103AC000C043ABF11C0B400252D40548016841F4DD
:103AD00080710160FEF730FF824611E02C440258ED
:103AE00000480258FA48AA6C016821F0030111430A
:103AF0000160E2E7FEF720FFA0EB0A00642835D85A
:103B0000F4480068C005F5D58CBBDFF8C4A3B5F850
:103B1000B4100AF1240ADAF8000001F4407100F44C
:103B20004070884211D0DAF80010DAF8002021F451
:103B3000407142F48032CAF80020DAF8002022F402
:103B40008032CAF80020CAF80010D5F8B400B0F5E9
:103B5000807F1AD1FEF7F0FE029012E0FEF7ECFE35
:103B60000299411A41F2883081420AD9032426463B
:103B70002878DFF85CA3C0430AF1080AC00721D007
:103B80003CE0DAF800008007E8D5D5F8B410C1F3BE
:103B90000120032858460DD0016821F47C510160B2
:103BA000B5F8B420DAF80010C2F30B021143CAF8DA
:103BB0000010DDE7C84A036802EA111223F47C51C1
:103BC0001143ECE7E86F182816D005DCA0B10828EF
:103BD00008D0102804D10AE020280DD028280BD0C6
:103BE00001240AE00198012103F070F903E0009834
:103BF000012103F0FBF9044664B126462878C0434E
:103C000080071ED4A86F062819D2DFE800F0160C32
:103C100011161616EA6FDAF8001021F03801114378
:103C2000CAF80010EAE70198012103F04FF903E018
:103C30000098012103F0DAF904467CB100E0012488
:103C400026462878C04340071FD4D5F8940006289C
:103C500019D2DFE800F0160C11161616AA6FDAF862
:103C6000001021F007011143CAF80010E9E701989C
:103C7000012103F02BF903E00098012103F0B6F9CC
:103C80000446A4B100E0012426462878C0438006FB
:103C90002BD4D5F89000B0F1405F24D011DC10B3E4
:103CA000B0F1805F15D0B0F1005F10D116E0D5F80B
:103CB0009420D9F8001021F007011143C9F8001031
:103CC000E3E7B0F1804F0ED0B0F1A04F0BD001244C
:103CD0000AE00198002103F0F9F803E000980221BE
:103CE00003F084F9044694B126462878C043400680
:103CF0002BD4D5F89C00B0F5406F24D011DC10B364
:103D0000B0F5806F15D0B0F5006F10D116E0D5F882
:103D10009020DAF8001021F0E0411143CAF80010B9
:103D2000E3E7B0F5805F0ED0B0F5A05F0BD00124C3
:103D30000AE00198002103F0C9F803E0009802218D
:103D400003F054F9044694B126462878C04300068F
:103D50002BD4D5F8A000B0F5C04F24D011DC10B39F
:103D6000B0F5005F15D0B0F5804F10D116E0D5F852
:103D70009C20D9F8001021F4E0511143C9F800103B
:103D8000E3E7B0F5004F0ED0B0F5204F0BD0012483
:103D90000AE00198002103F099F803E0009802215D
:103DA00003F024F9044654B126462878C04300079E
:103DB0001ED4D5F88400B0F5805F0AD00FE0D5F8A6
:103DC000A020D9F8001021F460411143C9F8001077
:103DD000EBE70098022103F009F900B10126D5F8BC
:103DE0008420DAF8001021F440511143CAF8001081
:103DF0002878C043C00613D4D5F89800B0F5807F6A
:103E000005D10098022103F0F1F800B10126D5F8A0
:103E10009820D9F8001021F440711143C9F800101E
:103E20002868C043000316D4D5F8A40038B1B0F513
:103E3000803F09D0B0F5003F0BD001240AE0019883
:103E4000002103F043F803E00098022103F0CEF8CC
:103E500004468CB126462868C043400322D4D5F8D6
:103E60008800B0F5801F11D0B0F5001F13D0B0F559
:103E7000401F15D0012414E0D5F8A420D9F8001073
:103E800021F440311143C9F80010E4E7386840F4E8
:103E90000030386004E00098012103F0A7F80446E0
:103EA0005CB126462868C043C00323D4286DA8B15E
:103EB000B0F5803F17D001241BE0D5F88820DAF850
:103EC000001021F440111143CAF80010EAE7000085
:103ED0004C44025800480258CFFFFF00386840F4B5
:103EE0000030386004E00198022102F0EFFF044640
:103EF000E4B126462868C043800005D4009802211A
:103F000003F074F800B101262868C04380031BD475
:103F1000D5F88000B0B1B0F5807F0FD0B0F5007F4C
:103F200010D0B0F5407F0DD001240CE05A482A6D26
:103F3000016821F4803111430160DBE7386840F407
:103F400000303860ECB326462868C043C00207D46E
:103F50006A6FD8F8001021F000411143C8F8001032
:103F60002868C043C00008D4D5F8B820DBF800109A
:103F700021F480411143CBF800102868C04380022F
:103F800007D4EA6ED8F8001021F080711143C8F808
:103F900000102868C04340000CD4DBF8001021F466
:103FA0000041CBF80010DBF80010D5F8BC2011431D
:103FB000CBF800102868C04308D437486A6D016800
:103FC00000E018E021F04051114301602868C0432F
:103FD000000208D4D5F88C20DAF8001021F4400152
:103FE0001143CAF8001028790024C04300F00100F2
:103FF00020430AD00FE0D5F88020DAF8001021F431
:1040000040711143CAF800109EE70198002102F0A8
:104010005DFF00B106462879C04300F0020020434E
:1040200005D10198012102F051FF00B1064628791F
:10403000C04300F00400204305D10198022102F0A2
:1040400045FF00B106462879C04300F00800204330
:1040500005D10098002102F0C9FF00B10646287979
:10406000C04300F01000204305D10098012102F068
:10407000BDFF00B106462879C04300F0200004438C
:1040800004D10098022102F0B1FF00B916B101205D
:10409000BDE8FE8F0020FBE74C4402582DE9F05F9D
:1040A00004000F467ED0DFF83882D8F8000000F018
:1040B0000F00B8420CD2D8F8001021F00F0139439C
:1040C000C8F80010D8F8000000F00F00B84269D11D
:1040D0002078844D40070AD52069296801F07001D5
:1040E000884204D9296821F07001014329602078B1
:1040F0007C4E361D00070AD56069316801F07001F9
:10410000884204D9316821F0700101433160207880
:10411000C0060AD5A069316801F4E061884204D97B
:10412000316821F4E061014331602078DFF8B4B1F7
:1041300080060BF1080B0CD5E1695846DBF800202E
:1041400002F07002914204D9026822F070020A4320
:104150000260207880070AD5E068296801F00F0125
:10416000884204D9296821F00F0101432960207891
:10417000C0073ED05B49A2682868183920F47060F7
:10418000104328606068022818D0032819D00968F5
:10419000012819D0490700294ADADFF848A1AAF115
:1041A000080A00E044E0DAF8002022F007020243A7
:1041B000CAF80020FEF7C0FB814612E009688903B7
:1041C000E9E709688901E6E7C905E4E7FEF7B4FB1A
:1041D000A0EB090141F28830814202D90320BDE8F9
:1041E000F09F6168DAF8000000F03800B0EBC10F12
:1041F000ECD1207880070AD5E068296801F00F012A
:10420000884204D2296821F00F0101432960D8F8BF
:104210000010404601F00F01B9420BD9016821F0AE
:104220000F0139430160006800F00F00B84201D06F
:104230000120D4E7207840070AD52069296801F0D9
:104240007001884204D2296821F07001014329607D
:10425000207800070AD56069316801F07001884252
:1042600004D2316821F07001014331602078C0062A
:104270000AD5A069316801F4E061884204D231684E
:1042800021F4E06101433160207880060CD5E169BA
:104290005846DBF8002002F07002914204D2026816
:1042A00022F070020A43026000F06CF80E492A689E
:1042B0002B68C2F3032203F00F038A5CC95C02F08F
:1042C0001F0201F01F01D040084A20FA01F11160DD
:1042D0000749086007480068BDE8F05FFEF74EBC7C
:1042E0000020005218440258D08901902000002478
:1042F0001C0000241400002430B500F043F80B4AE1
:104300000B490C4B15681468C5F3032204F00F0425
:104310008A5C095D02F01F0201F01F01D040064ACD
:1043200020FA01F119601060084630BD18440258A7
:10433000D0890190200000241C00002400B5FFF764
:10434000DBFF05490968054AC1F30211515C01F020
:104350001F01C84000BD00001C440258D0890190D4
:1043600000B5FFF7C9FF05490968054AC1F30221F5
:10437000515C01F01F01C84000BD00001C44025800
:10438000D0890190454970B545480968434B103BB9
:1043900011F0380208D00111082A03D0102A0BD0DE
:1043A000182A0BD0084670BD19688906FBD5196814
:1043B000C1F3C101C84070BD3A4870BD3749374D9F
:1043C00018310C1D24350A68096826682D6802F02A
:1043D000030406F00102C1F30511C5F3CC0515FB7A
:1043E00002F200EE102AB8EE400AE9B32F4ADFEDE0
:1043F0002E0AB7EE001A6CB1DFED2D1A012C01D098
:10440000022C43D002EE101A1068F8EE422A81EE18
:10441000A22A1EE01C68A40611D51B6801EE901AA2
:104420001168C3F3C103F8EE612AD84001EE900A87
:10443000C1F30800F8EE611A81EEA22A0BE001EE4A
:10444000901ADFED1C2A00BFF8EE611A106882EEA8
:10445000A12AC0F3080001EE900AF8EE611A40EEBE
:10446000201A31EE810A00E015E022EE000A106801
:10447000C0F34620401C00EE900AF8EE600A80EE81
:10448000201ABCEEC10A10EE100A70BD01EE901A9F
:10449000DFED092AD8E7002070BD00001044025863
:1044A0000090D00340787D0100000039304402586C
:1044B0000024744A0024744C20BCBE4B2DE9F05FEC
:1044C00004007DD0FF4F2078FE4D1837DFF8F493BD
:1044D000103DC00748D0D9F80000396800F0380016
:1044E000102815D0182803D101F0030002280FD09E
:1044F0006068B0F5803F12D010B1B0F5A02F18D091
:10450000286820F480302860286820F4802009E0A2
:104510002868800328D560680028D2D024E0286865
:1045200040F480302860606888B1FEF705FA0646DE
:1045300009E0286840F480202860F0E7FEF7FCF9E5
:10454000801B64286FD828688003F7D50CE0FEF73D
:10455000F3F9064605E000BFFEF7EEF9801B64287C
:10456000F0D828688003F7D4207841F20308D54EAC
:104570000C3E800769D5D9F80000396810F0380082
:104580000ED0182801D188070AD0E06890B32968B6
:1045900021F0190101432960FEF7CEF9824631E08E
:1045A0002868400702D5E06800288AD0E1682868BA
:1045B00020F0190008432860FEF7BEF9824607E0A4
:1045C000DFE000BFFEF7B8F9A0EB0A000228B9D877
:1045D00028684007F6D500BFFEF7A8F940451BD86C
:1045E0002069402812D0316821F47C3141EA003042
:1045F00030602AE018E000BFFEF79EF9A0EB0A0049
:1046000002289FD828684007F6D5E5E7306820F4EF
:104610007C3040F40030EBE7207C316821F0FE4133
:1046200041EA0060E4E70DE1286820F0010028601D
:10463000FEF782F9824605E0FEF77EF9A0EB0A005C
:1046400002288DD828684007F6D42078C0065DD5AA
:10465000D9F80000DFF86CB2396800F03800ABF12F
:10466000040B082810D0182803D101F003000128FA
:104670000AD0E0690028286838D040F0800028601F
:10468000FEF75AF9824623E02868C00523D5E06981
:10469000802876D11FE0206A202821D0316821F0BF
:1046A000F84141EA8060306030E000BF94F82010AB
:1046B000DBF8002022F07C5242EA0161CBF80010C6
:1046C00024E000BFFEF738F9A0EB0A00022898D8D2
:1046D0002868C005F6D5FEF729F94045E6D8DAE79F
:1046E000306820F0F84040F08040DCE720F08000A7
:1046F0002860FEF721F9064605E000BFFEF71CF929
:10470000801B02289DD82868C005F7D420780007B0
:1047100029D56C486169643000298046016811D050
:1047200041F001010160FEF707F9064605E000BF10
:10473000FEF702F9801B0228C9D8D8F800008007CC
:10474000F6D510E021F001010160FEF7F5F806460C
:1047500005E000BFFEF7F0F8801B022872D8D8F8F9
:1047600000008007F6D42078800623D5A0690028B1
:10477000286810D040F480502860FEF7DDF8064627
:1047800005E036E1FEF7D8F8801B02285AD82868E1
:104790008004F7D50EE020F480502860FEF7CCF8B6
:1047A000064604E0FEF7C8F8801B02284AD82868AD
:1047B0008004F7D4207840074FD5DFF80C81D8F873
:1047C000001041F48071C8F80010FEF7B5F80646F5
:1047D00005E000BFFEF7B0F8801B642832D8D8F897
:1047E0000000C005F6D5374EA068603601280AD013
:1047F00008B1052813D0306820F00100306030681F
:1048000020F0040002E0306840F001003060A06851
:1048100041F2883A90B1FEF78FF880460AE030689E
:1048200040F004003060EEE7FEF786F8A0EB0801E8
:10483000514507D830688007F6D50EE0FEF77CF8C2
:10484000804607E084E000BFFEF776F8A0EB0801A1
:1048500051457DD830688007F6D4606AB0B3DFF880
:104860006480D9F8001008F120084FF6F87B08F1B1
:104870000409C1F3C2010329A8F1040A69D002287E
:10488000286820F08070286003D0FEF755F80446B1
:1048900084E0FEF751F8064605E000BFFEF74CF84D
:1048A000801B022877D828688001F7D4E26A40F29A
:1048B000F331386854F8283F884340EA021018431F
:1048C000386004E01044025800480258B5E0217BEB
:1048D000434622894FF4FE0C208A4FF0FE474902DE
:1048E000267D521E401EA1F50071C2F308088AB24F
:1048F000761E0CEA004042EA08020243504607EAEC
:1049000006610A431A60DAF8002022F00102CAF8B0
:104910000020D9F80020266A22EA0B0242EAC602E9
:10492000C9F80020DAF80010A26921F00C01114347
:10493000CAF800100168E26921F002011143016028
:10494000016841F480310160016841F4003101E007
:1049500021E027E00160016841F4802101600168E5
:1049600041F001010160286840F080702860FDF787
:10497000E3FF044605E000BFFDF7DEFF001B022851
:1049800009D828688001F7D557E000BFFDF7D4FFAC
:10499000001B022802D90320BDE8F09F286880018F
:1049A000F4D44AE039680128D8F8000021D0A26A7E
:1049B00001F0030393421CD1E26AC1F305118A425C
:1049C00017D1216BC0F30802491E8A4211D1616BD5
:1049D000C0F34622491E91420BD1A16BC0F306429F
:1049E000491E914205D1E16BC0F30660491E814228
:1049F00001D00120D0E7A16C4E46D9F80000C0F3E9
:104A0000CC00814219D0DAF80000554620F00100B0
:104A1000CAF80000FDF790FF4FEA0007FDF78CFF92
:104A2000B842FBD0A26C306820EA0B0040EAC2001A
:104A30003060286840F0010028600020ACE710B525
:104A4000044600688069C00707D0204600F047F898
:104A50002068416941F00101416110BD70B5040059
:104A60000D4603D094F82C0010B107E0012070BD72
:104A7000002084F82D00204600F018F8022084F869
:104A80002C002068211DFBF7BDFFD4E90002294658
:104A9000FCF70AF804480121026842F00042026073
:104AA00084F82C10002070BD00400052FDF7A2BD1C
:104AB00010B5044690F82C00022804D094F82C007D
:104AC000012801D0012010BD022084F82C002068AC
:104AD000FBF7CDFF012084F82C00002010BD7047AB
:104AE00070B5044690F82C000D46022804D0012829
:104AF00003D0052801D0012070BD022084F82C00CD
:104B00002068FBF7BDFF2868022805D05FF0010090
:104B100084F82C00002070BD0520F9E72DE9FC5F2A
:104B20000446806B0E46032184F8301000270328CA
:104B30005CD0B6F5004F59D0B6F5804F4FF0000568
:104B40004FF400684FF0806904D006B3606B40F00A
:104B500000603FE0009500210195206802F022FEF0
:104B600080011CD46946204602F0A0FE70BB01986B
:104B700040032DD5B4F844102068090402F0C6FAA9
:104B800020BB206802211DE0606B284322E00095D5
:104B900000210195206802F005FE800101D54546FF
:104BA000F2E76946204602F081FE78B90198C00319
:104BB0000ED5B4F844102068090402F0A7FA28B909
:104BC0002068002102F0ECFA0028DDD00546DBE782
:104BD0004D46D9E76063606B4FF4007BDFF8B8A007
:104BE00040B121680127C1F838A042E0606B40F075
:104BF0008050EFE700214FF48030FEF715FC0100F4
:104C000032D0264D3346D4E904C0B1FBF5F8D4E9DF
:104C10000192804510D9A66D5E450DD0B6F5807F16
:104C200011D04FEA6506E0B14FEA4008B1FBF8F851
:104C3000B04501D9B1FBF5F04946CDE900C0206887
:104C400002F0B4FD15E0164E30B14FEA4008B1FB5A
:104C5000F8F8A84502D8EFE7A942EDD9B1FBF6F084
:104C6000EAE7B142E6D8E7E7606B012740F0006071
:104C700060632068594602F07AFA30B12268012751
:104C8000C2F838A0616B01436163012084F83000F1
:104C90003846BDE8FC9F0000FF0FE01F80F0FA02DD
:104CA00000E1F505F0B5C26D920F0A70C26DC2F356
:104CB00083624A70C26DC2F301628A70C26D120CC7
:104CC000CA70B0F85C20120A0A7190F85C204A7130
:104CD000026E120DCA80026EC2F303420A72B0F86D
:104CE0006020C2F3C0324A72B0F86020C2F3803252
:104CF0008A72B0F86020C2F34032CA72B0F8602005
:104D00000026C2F300320A734E730122836B4FF404
:104D1000007463B1012B3AD0036850499963416B29
:104D200041F08051416380F830200120F0BDB0F89F
:104D30006030456E9B051B0D43EA95730B61436E16
:104D4000C3F3C2630B75436EC3F302634B75436ECB
:104D5000C3F342538B75436EC3F38243CB75436EEB
:104D6000C3F3C2330B760D696D1C85640B7E03F0B3
:104D700007039B1C9D4085640B7A446503F00F0379
:104D800002FA03F35F0A7D43C0E913350EE090F8A1
:104D90006050436EAD06AD0A45EA13430B610B69E3
:104DA0005B1C9B028364C0E913434465B0F8643024
:104DB000C3F380334B76B0F86430C3F3C6138B76FD
:104DC00090F8643003F07F03CB76836EDB0F0B77B4
:104DD000836EC3F341734B77836EC3F382638B7728
:104DE000836EC3F38353CB77836EC3F3405381F851
:104DF000203081F82160836EC3F3004381F82230B4
:104E0000B0F86830C3F3C03381F82330B0F86830AD
:104E1000C3F3803381F82430B0F86830C3F34033F3
:104E200081F82530B0F86830C3F3003381F82630BC
:104E3000B0F86830C3F3812381F82730B0F86830C8
:104E4000C3F3012381F8283090F86800C0F34600CE
:104E500081F8290081F82A200020F0BDFF0FE01F13
:104E6000826B0A60C26B4A60026C8A60426CCA60E4
:104E7000826C0A61C26C4A61026D8A61406DC861D0
:104E80000020704770B5B0F8441000250446006853
:104E9000090402F072FA18B1616B0143616304E026
:104EA0002068002102F07EFC0546C5F3432070BD5A
:104EB0002DE9F041054690F8300090B00C460026F0
:104EC000032810D06946284602F038FE2A4F4FF0DA
:104ED000010860B12A68012697636A6B02436A631E
:104EE00085F830803AE0012010B0BDE8F0810099EB
:104EF0004FF47F40C1F3811121700099C1F340113B
:104F0000617000990A4600EA112141EA126161804C
:104F1000019909BA6160029921720299090A6172C4
:104F20000299C1F30351A172DDE9022100EA1240A6
:104F3000C9B20843A0810398C0F38520A0730398E9
:104F4000C0F30120E0730398C0F3031020740398AA
:104F500000F00F0060740498000EA07428684FF4ED
:104F6000007102F004F928B12A680126976368638A
:104F700085F830803046B7E7FF0FE01FF0B504003A
:104F800085B020D094F83000002518B92046257649
:104F900000F098F8042084F83000204600F03CF837
:104FA00088B969462046FFF783FF60B99DF8101065
:104FB000A26B9DF81100012A08D0A5652046E16882
:104FC000FFF7ACFD58B1012005B0F0BD014302D0A0
:104FD0004FF4007001E04FF48070A065EEE7FDF73C
:104FE000ABFC0127064604E0FDF7A6FC801B401C35
:104FF0000AD02046FFF746FF0428F5D16563E56235
:1050000084F830700020DFE74FF00040606384F8E0
:1050100030700320D8E700002DE9FC414FF0000874
:1050200004464FF480304146FEF7FEF905004FF08C
:10503000010723D02048434642464146B5FBF0F6DF
:10504000CDE90086206802F0B1FB206802F0BEFBCB
:105050001EB17000B5FBF0F52DB11848B0FBF5F0AE
:10506000401CFDF7B5FA204602F00EFD60B100BF0E
:1050700084F83070616B0143616319E04FF00060A8
:1050800084F83070606313E0204602F081FC002851
:10509000EED120684FF4007102F069F8002808D0C2
:1050A000226807499163616B0143616384F8307042
:1050B0000120BDE8FC81000000350C00102101003A
:1050C000FF0FE01FF0B5B7B00446142130A8FBF77E
:1050D0005CF9C0216846FBF758F9234920688842EB
:1050E0003FD1002014904FF480310446CDE90010E8
:1050F0006846FEF7FDFA08B1FBF758FC1B4801684B
:1051000041F480310160006800F480303590174828
:105110000C30016841F004010160016801F00401F4
:105120003591016841F0080101600068022532AA4A
:1051300000F0080035904FF4F850CDE93005032613
:105140000B480C2782E8D00030A9FDF7CFFA0420E5
:1051500032AACDE93005074830A982E8D000FDF732
:10516000C5FA37B0F0BD000000700052D4440258B8
:1051700000080258000C02582DE9F04F87B09946FC
:1051800017460D460446FDF7D7FB06903DB194F84F
:105190003000012807D0606B40F000500DE0606BDC
:1051A00040F0006009E0226D002007EB0901606318
:1051B000914204D9606B40F000706063A8E0032165
:1051C00084F830102168C862A16B012900D07F02E9
:1051D0004FF0020ACDE903A090264FF0FF324FEACC
:1051E000492305908DE84C0080462068694602F00E
:1051F0006FF92068B9F1010F4FF00106C16841F065
:105200004001C16006D9C4F82CA03946206802F0DC
:105210001FF804E0E6623946206802F033F8DFF850
:1052200014A150B12368C3F838A0616B01436163D6
:1052300084F83060C4F82C806AE0DDF804B01FE028
:10524000406B000414D5BBF1200F11D30027206858
:1052500002F0C2FA020A2870010C6A70030EA970EB
:105260007F1CEB70082F05F10405F0D3ABF1200B88
:10527000FDF762FB0699411A1098814221D200B3D2
:105280002068416B11F4957FDAD0C16821F04001AC
:10529000C1602068416BC90522D5B9F1010F1FD942
:1052A000A16B03291CD002F0B5F8C8B12368C3F87C
:1052B00038A0626B0243626384F83060C4F82C80CB
:1052C00026E02268C2F838A0606B40F000406063BE
:1052D00084F83060C4F82C80032007B0BDE8F08F5C
:1052E0002068416B090706D5C0F838A0616B4046BD
:1052F00041F0080108E0416B89070BD5C0F838A0E0
:10530000616B404641F00201616384F83060E06205
:105310000120E2E7416B890606D5C0F838A0616B31
:10532000404641F02001EFE70349816384F8306093
:105330000020D2E7FF0FE01F3A0F00182DE9F04FD1
:1053400089B09A4616460D460446FDF7F5FA0690D2
:105350003DB194F83000012807D0606B40F0005058
:105360000DE0606B40F0006009E0226D002006EB6C
:105370000A016063914204D9606B40F00070606381
:10538000B2E0032184F830102168C862A16B0129C2
:1053900000D076024FF0FF314FEA4A220590902369
:1053A0000490CDE90230CDE90012804620686946BC
:1053B00002F08EF82068C168BAF1010F41F0400296
:1053C000C26006D92020E0622068314602F04CF825
:1053D00005E01020E0622068314602F05FF8DFF857
:1053E00030B106004FF001090AD02368C3F838B085
:1053F000606B3043606384F83090C4F82C8073E0B5
:105400000198089027E0406B40041CD5089820289C
:1054100019D3002728780790697840EA012007907F
:10542000A97840EA01400790E9782D1D40EA016023
:105430000790206807A902F0E7F97F1C082FE9D33D
:10544000089820380890FDF777FA0699411A1298C3
:10545000814221D200B32068416B11F48D7FD2D0FC
:10546000C16821F04001C1602068416BC90521D5A8
:10547000BAF1010F1ED9A16B03291BD001F0CAFF9D
:10548000C0B12568C5F838B0616B0143616384F829
:105490003090C4F82C8027E02368C3F838B0626BE2
:1054A0003243626384F83090C4F82C80032009B042
:1054B000BDE8F08F2068416B090707D54946C0F861
:1054C00038B0626B404642F0080209E0416B890740
:1054D0000CD54946C0F838B0626B404642F0020233
:1054E000626384F83010E0620120E0E7416BC90696
:1054F00007D54946C0F838B0626B404642F010020A
:10550000EEE7044A826384F830900020CFE7000081
:10551000FF0FE01F3A0F00182DE9F047040029D0D3
:10552000594A4FF000092068584B594D9042C4F831
:10553000289006D0984204D0A84202D0E1680F29F2
:1055400018D8E1684FF0010AE76B0831C9080AEB87
:1055500057167143904205D0984203D0A84201D01B
:10556000082907D8904203D0984201D0A84204D11C
:10557000102902D90120BDE8F08794F8810020B9F4
:10558000204684F8809000F085F8022084F881009D
:105590002068016821F0010101602068A16982682A
:1055A000B1F1806F02F4F81110D16268B2F5800F8A
:1055B00001D01AB10AE0A26B22B107E0A26BB2F1EE
:1055C000805F03D1026842F480520260606840024A
:1055D00009D5E068072806D32068236D026822F405
:1055E00080721A4303E02068026822F4807202602D
:1055F000A66AE069E26B25683043E3680A4310431A
:105600001843A860D4E90D02D4E90581636A2569CD
:105610001843D4F820C00A43266810432843A56DD8
:10562000D4E90172D4E9123140EA080040EA0C00E2
:1056300038430843104318432843F060606868B952
:105640002068816821F4C05141F4006181602068C4
:10565000816821F4C06141F4806181602068016D3E
:1056600021F0010101656068400206D52068626D85
:10567000C16821F000411143C160C4F8849084F8EE
:1056800081A0002077E70000003001400038004092
:10569000003C00402DE9F04186B0044614216846E4
:1056A000FAF773FE24492068884242D123480168F2
:1056B00041F480510160006800F4805005901F485B
:1056C0001038016841F002010160016801F0020137
:1056D0000591016841F040010160016801F040015D
:1056E0000591016841F0010101600068052701AAE8
:1056F0004FF0200800F00100CDF800800224694638
:105700000025CDE9047003260D4882E87000FCF7FF
:10571000EDFF200269468DE8F1000A48FCF7E6FF3C
:1057200001AACDF800800848694682E8F000FCF73D
:10573000DDFF06B0BDE8F08100300140F0440258C2
:10574000000402580018025800000258024A136868
:1057500083430B431360704704040058401EB0F1AC
:10576000807F10B501D3012010BD4FF0E0246061AF
:105770000F21601712F07CFB0020A061072121613E
:1057800010BD704770477047F0B590F83C20012A73
:105790003BD01F4E012480F83C40022280F83D207F
:1057A00002681C4D5368B242D2F808C001D0AA4228
:1057B00003D14F6823F470033B430F6823F0700359
:1057C0001F4357600268B24213D0B2F1804F10D02D
:1057D000114B9A420DD0114B9A420AD0104B9A426B
:1057E00007D0AA4205D00F4B9A4202D00E4B9A42E4
:1057F00004D189682CF0800319439160002180F85E
:105800003D4080F83C100846F0BD0220F0BD00008D
:105810000000014000040140000400400008004076
:10582000000C0040001800400040014010B504008A
:1058300003D094F83D0010B107E0012010BD002016
:1058400084F83C00204600F023F8022084F83D0054
:105850002068211D02F02EFB012084F8480084F806
:105860003E0084F83F0084F8400084F8410084F84A
:10587000420084F8430084F8440084F8450084F82A
:10588000460084F8470084F83D00002010BD000069
:1058900010B586B0044614216846FAF776FD1C4A16
:1058A00021681C48914227D1016841F0080101603C
:1058B000006800F00800059016480838016841F0BB
:1058C0000101016000680121042200F0010005903F
:1058D00002200092CDE90101CDE903100E4869468E
:1058E000FCF704FF00220C213220FDF747FB322099
:1058F000FDF736FB06B010BD084A9142FAD10168A7
:1059000041F010010160006800F010000590F1E71F
:10591000000C0040E844025800000258001000400B
:1059200070B5044690F83C000025012814D03A4B8D
:10593000012684F83C60022084F83D0022689068CB
:10594000184020F47F409060086870282FD010DC49
:1059500010F00F0F03D022E04FF0020070BD4FEAAD
:105960002012072A1BD2DFE802F0535353534B395E
:105970004100B0F1101F4BD009DCB0F5805F0FD0B3
:10598000B0F5005F1ED0B0F5801F08D140E0A0F553
:10599000801120393CD010293AD0202938D0012557
:1059A00084F83D60002084F83C00284670BD4A68B9
:1059B0002068D1E9021302F0DFFA2068816841F023
:1059C000770109E04A682068D1E9021302F0D4FAAD
:1059D0002068816841F480418160E1E7CA684968D4
:1059E000206802F079FC2068502106E0CA68496806
:1059F000206802F0C3FC2068602102F0C7FACFE7FC
:105A0000CA684968206802F067FC20684021F4E712
:105A1000226801461046F0E788FFCEFF70472DE967
:105A2000F041054690F83C0000260C46012810D0B5
:105A3000012085F83C0072B1042A1CD0082A2CD021
:105A40000C2A51D00126002085F83C003046BDE8E4
:105A5000F0810220FBE7E3682868D4E9001202F035
:105A60004DFC2868816921F00C01816128688169F9
:105A7000A26811430FE0E3682868D4E9001202F03D
:105A80008FFC2868816921F44061816128688169FF
:105A9000A26841EA02218161D5E7D4E900232868A0
:105AA000217B076A4FF4206C090727F4807707628F
:105AB0000CEA0222C769D0F820C027F003071F4371
:105AC0002CF4206C27F0F00342EA0C0243EA116147
:105AD000C16102622868C16921F00C01C1612868B6
