:0200000490006A
:10000000C8D1002471030090CF7100906768009000
:10001000CD710090950C00906D8E00900000000056
:10002000000000000000000000000000AD02009091
:10003000C90E00900000000009030090F1800090BC
:100040008B0300908B0300908B0300908B03009038
:100050008B0300908B0300908B0300908B03009028
:100060008B0300908B030090D30E00908B030090C5
:100070008B030090990C00908B030090A50C0090CE
:100080008B0300908B0300908B0300908B030090F8
:100090008B0300908B0300908B0300908B030090E8
:1000A0008B0300908B0300908B0300908B030090D8
:1000B0008B0300908B0300908B0300908B030090C8
:1000C0008B0300908B0300908B0300908B030090B8
:1000D0008B0300908B0300908B0300908B030090A8
:1000E0008B0300908B030090000000008B030090B6
:1000F0008B0300908B0300908B0300908B03009088
:100100008B0300908B030090D98200908B030090AA
:10011000098800908B0300908B0300908B03009064
:100120008B0300908B0300908B0300908B03009057
:100130008B0300908B0300908B0300908B03009047
:1001400000000000000000000000000000000000AF
:100150008B0300908B0300908B0300908B03009027
:100160008B0300908B0300908B0300908B03009017
:100170008B0300908B0300908B0300908B03009007
:100180008B0300908B0300908B0300908B030090F7
:100190008B0300908B0300908B0300908B030090E7
:1001A000996800908B0300908B0300908B03009064
:1001B0008B0300908B0300908B0300908B030090C7
:1001C0008B0300908B0300908B0300908B030090B7
:1001D0008B0300908B0300908B0300908B030090A7
:1001E0008B0300908B0300908B0300908B03009097
:1001F0008B0300908B0300908B0300908B03009087
:100200008B0300908B0300908B0300908B03009076
:100210008B0300908B0300908B0300908B03009066
:100220008B0300908B0300908B0300900000000074
:100230008B0300908B030090000000008B03009064
:100240008B0300908B0300908B0300908B03009036
:100250008B0300908B0300908B0300908B03009026
:100260008B0300908B0300908B0300908B03009016
:100270008B0300908B0300908B0300900000000024
:100280008B0300908B0300908B0300900000000014
:10029000000000008B030090DFF80CD000F024FA7F
:1002A0000048004735950090C8D100242D4B1968AF
:1002B0000868B0E8F04F80F30988BFF36F8F4FF004
:1002C000000080F3118870470000000008480068B3
:1002D000006880F308884FF0000080F3148862B64D
:1002E00061B6BFF34F8FBFF36F8F00DF00BF00BF5A
:1002F00008ED00E0DFF80C00016841F470010160D6
:10030000704700BF88ED00E0EFF30980BFF36F8F07
:10031000144B1A681EF0100F08BF20ED108A20E958
:10032000F04F106009B44FF0400072B680F31188AE
:10033000BFF34F8FBFF36F8F62B60AF021FA4FF011
:10034000000080F3118809BC19680868B0E8F04F14
:100350001EF0100F08BFB0EC108A80F30988BFF3BD
:100360006F8F7047A8000024EFF3058070470000EE
:100370000648804706480047FEE7FEE7FEE7FEE73F
:10038000FEE7FEE7FEE7FEE7FEE7FEE7FD81009001
:10039000990200902DE9F05F0546002092469B46A9
:1003A00088460646814640241BE02846414647468B
:1003B000224600F046F953465A46C01A914110D3DE
:1003C00011461846224600F02DF92D1A67EB010858
:1003D0004F4622460120002100F024F917EB0009C6
:1003E0004E41201EA4F10104DFDC484631462A4676
:1003F0004346BDE8F09F10B5431A934209D28318D3
:10040000881803E010F8011D03F8011D521EF9D2EF
:1004100010BD40EA01039B0703D009E008C9121F81
:1004200008C0042AFAD203E011F8013B00F8013BAE
:10043000521EF9D210BDD2B201E000F8012B491EC4
:10044000FBD270470022F6E710B513460A46044671
:100450001946FFF7F0FF204610BD421C10F8011BA3
:100460000029FBD1801A704710B5002200E0521C11
:10047000835C8C5CA34201D1002BF8D1D8B2E1B2ED
:10048000401A10BD30B504460020034600E05B1C56
:10049000934203D2E05CCD5C401BF8D030BD00003D
:1004A0000FB400B58DB010A909900B9000914FF0DA
:1004B000FF300A9000200C900548069005480790F0
:1004C0006A4609A80F9900F0E1F80DB05DF814FB39
:1004D000A9060090C70600902DE9FF5F1D464FF06A
:1004E000FF3BD5E9014691465F464FF00008A969F8
:1004F0007F1C01988847296A824688470028F6D1E0
:10050000BAF1FF3F0CD024F4C064002E19DD600660
:1005100014D5BAF12B0F09D0BAF12D0F0ED103E08B
:10052000584604B0BDE8F09F44F48064A9697F1C7C
:1005300001988847761E8246002E02DDBAF1300F00
:1005400003D0B9F1000F26D032E0A969761E44F439
:1005500000747F1C019888478246002E05DDBAF1A1
:10056000780F06D0BAF1580F03D0B9F1000F10D0B0
:100570001EE0B9F1000F02D0B9F1100F18D1A9692E
:10058000761E24F400747F1C019888478246102050
:1005900002E0082000E00A20814609E008FB090883
:1005A000A969761E44F400747F1C0198884782462E
:1005B000002E05DD4946504600F053F80028EDDADC
:1005C000E96901988847A00502D46FF00100A8E707
:1005D000E00725D1600613D5600502D5C8F10000FB
:1005E00000E0404629680A1D2A600968220501D5F5
:1005F000087015E0220701D5088011E008600FE0BF
:100600002868011D29600068210502D580F8008056
:1006100006E0210702D5A0F8008001E0C0F80080C4
:1006200038467EE7202A04DB203A00FA02F1002057
:1006300070479140C2F1200320FA03F31943904020
:100640007047202A04DB203A21FA02F0002170478B
:1006500021FA02F3D040C2F120029140084319462A
:1006600070473A2800D2303820F02002412A01D3C6
:10067000A2F13700884201D34FF0FF3070470000ED
:10068000026811441378016018467047D16004492C
:1006900051610449116200211161114600F03CB81A
:1006A000810600900D070090426842B1016811F880
:1006B000013B23B1521EC0E90012184670470121C8
:1006C000C160881E704742685AB1C368016843B967
:1006D00083688B4205D0491E521CC0E900120020DD
:1006E00070474FF0FF307047064C074D06E0E0685A
:1006F00040F0010394E8070098471034AC42F6D369
:10070000FFF7CEFDE0B0009000B10090C0B24FF412
:10071000F05100F097B900002DE9F34F8BB04FF086
:10072000000801F10C000C464FF0010B46460DF19C
:10073000080A01906269012101989047051E2DD099
:10074000252D2CD0216A8847C0B16269012101980A
:100750009047216A88470028F7D1411E62690198B5
:10076000904700E0761CA1690B988847216A88476A
:100770000028F7D1E1690B988847DBE7A1690B985E
:1007800088470746A84201D1761CD3E7E1690B9858
:1007900088477F1C02D1B8F1000F6FD046E10027D7
:1007A00062693D463946019890472A2804D162691A
:1007B0000121019890470125DFF8849262690121A7
:1007C00001989047A0F130010A290AD24F45E5DC93
:1007D00007EB870100EB4107303FDFD445F0100500
:1007E000ECE7E90601D46FF000476C280AD04C28EA
:1007F00014D0682815D06A280DD074281CD07A2807
:100800001AD01DE062690121019890476C2802D03E
:1008100045F0040514E045F002050DE045F0200523
:100820000AE06269012101989047682802D045F0EA
:10083000080505E045F400656269012101989047CB
:10084000C4E9015765283DD019DC58287AD00CDC62
:10085000452837D004DC252826D0412831D131E085
:1008600046282FD047282CD12CE05B2877D0612850
:1008700028D063287CD0642823D15AE0D0E06F28A8
:1008800048D008DC66281DD067281BD0692821D0F5
:100890006E2816D127E0702845D0732868D07528B7
:1008A00047D078280DD14DE0A1690B9888470546BF
:1008B00025283FF469AFE1690B9888476D1C3FF428
:1008C0006AAFB3E023466A466FF001000B99AFF3BD
:1008D00000809EE045F040006060A80723464FF08E
:1008E000000236D43EE0E8077FF447AF2068011DE0
:1008F00021600068290501D506701BE7290701D58D
:10090000068017E7A90703D5F117C0E9006111E7D1
:1009100006600FE745F040006060A80723464FF0EF
:10092000080216D41EE040F60E0125EA01006060C0
:1009300016E045F040006060A80723464FF00A0229
:1009400007D40FE045F040006060A80708D52346B3
:1009500010226FF001000B99AFF3008059E007E01F
:10096000234610226FF001000B99FFF7B5FD50E010
:100970004FF000094F464B46632802D05B2806D053
:1009800040E0E80601D40120A06001273AE0626956
:100990000121019890475E2805D14FF00109626955
:1009A000494601989047216939B900210A465346C2
:1009B00043F82120491C0829FADBB0B3216969B941
:1009C000C11700EBD16253110AEB830122F01F0221
:1009D000821A01200B68904003430B606269012179
:1009E000019890475D28E8D1B9F1000F09D00020A7
:1009F000514651F82020D24341F82020401C0828BD
:100A0000F7DB02AB224600976FF001000B99AFF3C2
:100A1000008000280CDA401C08D1BBF1000F05D083
:100A20004FF0FF300DB0BDE8F08FFFE74046F9E72B
:100A3000E90701D108F1010806444FF0000B79E6FF
:100A4000CCCCCC0C7F2801D9002208E0064A02EB6E
:100A50005002C007127800D1120902F00F020120E3
:100A60009040084070470000C8AE009070B58C18E8
:100A700010F8015B15F0070301D110F8013B2A11B2
:100A800006D110F8012B03E010F8016B01F8016B9F
:100A90005B1EF9D12B0705D40023521E0DD401F89B
:100AA000013BFAE710F8013BCB1A921C03E013F864
:100AB000015B01F8015B521EF9D5A142D8D3002099
:100AC00070BD000070B53A4905460068884202D002
:100AD000384A904202D1D1F8080302E03648D0F8F3
:100AE000080310F4403F11D003F024FD0446686869
:100AF000B0F5803F06D0B0F5003F03D0B0F5403FE1
:100B000027D101E0000C18E0A40822E000214FF4F6
:100B1000002002F0A7FD044668688103890B18D104
:100B200081140C2915D2DFE801F01406060606062A
:100B3000060B0D0F1113800C4000B4FBF0F408E01D
:100B4000240906E0640904E0A40902E0E40900E0E5
:100B5000240A02F069F841F20301884208D81748D4
:100B600084422868816813D821F48071816070BD47
:100B700013496008884204D82868816821F44071CC
:100B8000F4E71049884206D82868816821F440714A
:100B900041F48071EAE70C4988422868816804D8EA
:100BA00021F4407141F40071E0E741F44071DDE768
:100BB000002002400021024000600258002D310157
:100BC000105E5F0020BCBE0040787D0110B501249E
:100BD0000348210302F016F800B10024204610BD9E
:100BE000000402580146014804F014BA30030024FE
:100BF000044810B504F020FA042801D0012010BDEB
:100C0000002010BD3003002410B500F015F80128B5
:100C100001D0022010BD074804F08AFA040006D172
:100C200004484FF4804104F053F800B101242046F9
:100C300010BD00003003002408B501208DF800002D
:100C4000FFF7C4FF10B900208DF800009DF80000E8
:100C500008BD000038B50024009313460A4601463B
:100C6000034804F063FB00B10124204638BD0000B6
:100C70003003002438B50024009313460A46014689
:100C8000034804F035FC00B10124204638BD0000C3
:100C900030030024FEE70000014801F0C1B8000065
:100CA000AC050024014801F0BBB800002406002474
:100CB000294A016891423AD0274A1832914236D0E7
:100CC000254A3032914232D0234A483291422ED0C6
:100CD000214A603291422AD01F4A7832914226D06E
:100CE0001D4A9032914222D01B4AA83291421ED016
:100CF0001A4A91421BD0194A1832914217D0174A0A
:100D00003032914213D0154A483291420FD0134AE3
:100D1000603291420BD0114A7832914207D00F4A8B
:100D20009032914203D00D4AA832914211D1CAB2F9
:100D30001823103AB2FBF3F26FF30901032A02F011
:100D40000703074AD25CC26500D9091D81650846C0
:100D5000704721F0FF01F9E7100002401004024043
:100D600088AE009030B5224A012301689142CAB290
:100D70001BD01F4C1434A14217D01D4C2834A14263
:100D800013D01B4C3C34A1420FD0194C5034A1421B
:100D90000BD0174C6434A14207D0154C7834A142D3
:100DA00003D0134C8C34A1420CD11421114C083ABD
:100DB000B2FBF1F10F4A803201F01F0504EB810113
:100DC000AB4010E00C4D1824103A0D44B2FBF4F186
:100DD000A82D00D80831094A01F01F0402EB810157
:100DE000064AA3408032603080E80E0030BD00002B
:100DF0000854025800580258F0FBFDBF000802409A
:100E000010B50279531E072B2DD8174C0168A1424B
:100E10001BD0154C1434A14217D0134C2834A142D6
:100E200013D0114C3C34A1420FD00F4C5034A1428E
:100E30000BD00D4C6434A14207D00B4C7834A14246
:100E400003D0094C8C34A14203D10849074C4431EA
:100E500002E00749064C443104EB8202C0E91B2141
:100E600001219940416710BD08540258FC580258AE
:100E7000FC08024010B583694FF0C074826A0146D5
:100E8000002053B1B3F5005F15D072B1012A0CD028
:100E9000022A0AD0032A09D104E01AB1012A06D095
:100EA000022A03D1C96AC90100D5012010BDC96A4F
:100EB000A142FAD010BD002AF7D0012AF2D0022AAE
:100EC000F3D0032AF3D010BD7047012009F07EFB58
:100ED000FBE7102001F073BD72B6FEE7002200F0C0
:100EE00001B800000E4B70B505465C7A0120002C5D
:100EF00014D15E7A03F108009C555E7A03EB8606F6
:100F000075605D7A2A54587A421C5A723A232F220D
:100F1000303008704B7020468A70CC7070BD000075
:100F20009C060024F0B5D1E90843CD690A68C2B136
:100F30000268254322F4F84213431D430560D1E9BA
:100F40000125D1E903364C692A4345683343896951
:100F50001A43EB0B2243DB030A431A43426000208F
:100F6000F0BDD1E9012ED1E9036CD1E9057142EA66
:100F70000E0246EA0C0632433A430A4301682A430A
:100F800022431A436FF30E010A430260E7E70000B1
:100F90002DE9F04F8B8A6FF00F05264C4FF07F4BF9
:100FA000D1F80C9004EB03536FF0FF044FEA042ACE
:100FB0001AB386684FEA09321F4FA2F580521A43CE
:100FC0003E4032438260D1E900278E68521E05EB15
:100FD00007150F8A2A43C56804EB06240E7E0AEB28
:100FE000074322431A430BEB06610A4305F07043A3
:100FF0001A43C2600020BDE8F08F91E804110F4E43
:10100000521E0F8A05EB08152A4304EB0C2C06EB45
:1010100009350E7E42EA0C022A4385680AEB074432
:1010200022431A430BEB06610A4305F070431A434F
:101030008260DFE70000F0FFFF0F0FFF00F0FFFF0F
:10104000094901201CB500234202CDE900010B48EB
:1010500006A109F0F1FC012802D04FF0FF301CBDC1
:1010600009F058FBFEE700001C0100244170705499
:1010700061736B437265617465000000F17F0090DD
:101080002DE9F84F4FF0000B0446E54E0D46CDF824
:1010900000B05F4690F85000DFF888A3012808D020
:1010A0004FF0010984F85090206805F0E1FB18B179
:1010B00069E10220BDE8F88F21682868CA69030346
:1010C00028D090FAA0F0B0FA80F000BF00F01F0323
:1010D00009FA03F00243CA61D5E900124FF00C0C83
:1010E00020681F23C1F384610CEA921C02F01F02E6
:1010F000604493409140026B9A430A430263206824
:1011000005F0B6FB8046206805F0AEFB58EA00000B
:1011100003D07FE0C0F38460D8E72068AA6829681C
:1011200005F0AAFBC0490968B9EB117F06D1216817
:101130006869C968C1F38201490008E02068C16894
:10114000C906C1686869F5D501F0100149088840F1
:10115000296904292ED022682B6802EB810103F053
:10116000F8420B6E024303F0004010430866697EAC
:1011700022682869012917D05FF0000102EB800086
:10118000026E22F000420A430266287E21682A6924
:1011900001280CD000200B6902F01F02904023F4BC
:1011A000F04202430A6135E04FF00041E6E74FF4B8
:1011B0000060F0E720682978026E02F0F842B2EB96
:1011C000816F03D1016E21F000410166206829780A
:1011D000426E02F0F842B2EB816F03D1416E21F012
:1011E0000041416620682978826E02F0F842B2EB35
:1011F000816F03D1816E21F00041816620682978DA
:10120000C26E02F0F842B2EB816F03D1C16E21F0E1
:101210000041C1662068816811F0010F76D150F855
:10122000C02F95F80CC0814B29680CF0180C23FADC
:101230000CF3C1F313080B4022EA08021A430260C0
:101240007B48E968814277D1286801031BD090FA76
:10125000A0F1B1FA81F1491C01F01F0109294FEAFF
:10126000003131D8002911D090FAA0F1B1FA81F102
:1012700001F1010101F01F0109FA01F209D100BFDA
:10128000C0F3846109E0C0F38461E4E7C0F38461E2
:10129000EEE790FAA0F1B1FA81F101F1010101F05C
:1012A0001F0142EA816102D1C0F3846003E090FA39
:1012B000A0F0B0FA80F000F1010000F01F0000EB98
:1012C000400041EA005133E000290ED090FAA0F12D
:1012D000B1FA81F101F1010101F01F0109FA01F2F6
:1012E00006D100BFC0F3846106E0C0F38461F1E77A
:1012F00090FAA0F1B1FA81F101F1010101F01F01B1
:1013000042EA816103D1C0F3846004E040E090FAD6
:10131000A0F0B0FA80F0474A00F1010000F01F0091
:1013200000EB400002EB005041EA000141F0007187
:10133000AA68206805F0A0FAD5F800C0BCF1000F3B
:1013400026DA3D4B20683D49DFF8F490984201D001
:10135000B04201D10A4600E04A469268984202F043
:10136000E07201D0B04209D19D68D6F8088005F03E
:10137000010508F0010845EA080503E0DAF808501D
:1013800005F0010545B1606D012740F02000606562
:10139000384684F850B08DE62A4DAC451CD1150274
:1013A0001AD45045F4D1984202D0B04200D04946F8
:1013B0008B6842F4000023F0E07202438A60234904
:1013C00021480968B1FBF0F04000801C00E0401E9D
:1013D00000900028FBD1DBE71D4DAC450CD1D501B9
:1013E0000AD45045D4D1984202D0B04200D04946E8
:1013F0008B6842F080700EE0164DAC45C8D15502A6
:10140000C6D45045C4D1984202D0B04200D049461B
:101410008B6842F4800023F0E07202438A60B7E7F1
:1014200000210240006002580010005CFFFF0F0026
:101430000000FF47000020FE002002400023024081
:1014400000630258000084CB400D03001C00002400
:10145000000052C70000B8CFF8B54FF000060400F6
:101460003546009602D0606D10B107E00120F8BD4E
:10147000204600F005F9A66584F850602068816870
:10148000C1F3407119B18168704A114081602068D0
:101490008168C1F3007181B981686D4A114041F0E2
:1014A000805181606C496B480968B1FBF0F0401CC9
:1014B00000E0401E00900028FBD120688168C1F345
:1014C000007141B9616D012541F010016165A16DA7
:1014D00041F00101A16505F0CBF9616DC90600D4A9
:1014E00020B1606D012540F0100093E0606D20F4A4
:1014F000807040F0020060652068816811F0010F83
:101500001FD1564A564B904201D0984207D191685C
:101510009E6801F0010106F00106314303E05149E4
:10152000896801F0010161B9904201D0984201D16E
:101530004D4800E04D488268616822F47C120A43FD
:10154000826001F071FB41F20301884202D9A06878
:1015500010280CD0617D227FA368206B490341EAEB
:10156000024118430843217F01290CD010E0607D1F
:10157000227F216B400340EA024241F010001043F9
:1015800040F00C00EFE7218C394A02EB414108435F
:10159000616A29B1A26A01F47871014342EA01004B
:1015A0002168344BCA681A400243CA60206805F0BB
:1015B0005FF90646206805F057F930431DD12168D0
:1015C00044F20303267DE26AC86842EA8632984301
:1015D0001043C86094F8380001281ED020680169C3
:1015E00021F0010101612068626B016921F0704105
:1015F000114301612046FFF765FAE0680128206881
:101600001CD0016B21F00F010163606D20F002001E
:1016100040F0010060652846F8BD2068A28F164F93
:10162000D4E9101C154E07EB0247A36C026941EA8E
:101630000C013B43324019431143D3E7A269016BCC
:10164000521E21F00F011143DEE70000C0FFFF5FD3
:10165000C0FFFF7F400D03001C000024002002405B
:10166000002102400060025800230240006302583B
:101670000000FEFF03C0F0FF0100FFFF1EF800FCAA
:10168000006882B00D49884216D10D48016841F0CA
:1016900080710160016801F080710091016841F082
:1016A00004010160006800F0040000904FF0006049
:1016B00002B0014604F024B902B07047006002583D
:1016C000E0440258F0B590F86020012A22D0C1EB26
:1016D000C102012780F86070022380F8613000EBBE
:1016E0008202284D138F168EB2F83CC0D46A1B05B7
:1016F000283244EA064643EA4C530A2C46EA0306DB
:101700000AD0092C08D0137B46EA036349B10B2C9D
:101710001AD01DE00220F0BDD36803F07F433343AD
:10172000F4E701684C6AAC431C434C6201681368DF
:101730008B6151680A2901D009291BD1D16802683F
:1017400021F07F41916215E0118B0F4D43EA8143F7
:101750000168CC69AC431C43CC61016813680B6120
:1017600051680A2901D0092904D1D168026821F001
:101770007F411162002180F8617080F86010084696
:10178000F0BD00000F0033FF0F003FFF2DE9F041D7
:10179000040004D094F86100002518B107E001208E
:1017A000BDE8F081204684F8605000F033F8184E10
:1017B000022084F861000123D4E90010D4F81CC091
:1017C00040F207120F6840EA0C00374038430860C7
:1017D0002068A769A168466B39439643314341634A
:1017E0002068E268016C6FF30F0111430164206807
:1017F000218AA28A466B090541EA425126F4401229
:1018000011434163656684F861300020C8E7000039
:10181000BFFFF8FF08B500680649884208D10648AE
:10182000016841F010010160006800F010000090B4
:1018300008BD000000100052D44402582DE9F84FB2
:10184000044601F0F7F900903CB194F83500022805
:1018500006D0802161650020E4E00120BDE8F88F1A
:10186000C74DC74EC649183520683036DFF8148397
:10187000DFF814938842DFF814A3DFF814B32ED0F6
:10188000A8422CD0B0422AD0404528D0484526D086
:10189000504524D0584522D0BD4A183290421ED01F
:1018A000BC4A90421BD0BB4A1832904217D0B94A6A
:1018B0003032904213D0B74A483290420FD0B54AE6
:1018C000603290420BD0B34A7832904207D0B14A8E
:1018D0009032904203D0AF4AA832904209D10268B8
:1018E00022F01E0202602068426922F080024261FA
:1018F00003E0026822F00E02026027688F42384639
:101900004DD0A8424BD0B04249D0404547D0484581
:1019100045D0504543D0584541D09D4A1832904259
:101920003DD09C4A90423AD09A4A1832904236D0E2
:10193000984A3032904232D0964A483290422ED065
:10194000944A603290422AD0924A7832904226D00D
:10195000904A9032904222D08E4AA83290421ED0B5
:101960008D4A90421BD08C4A1432904217D08A4A3A
:101970002832904213D0884A3C3290420FD0864A97
:10198000503290420BD0844A6432904207D0824A4F
:101990007832904203D0804A8C32974204D1206E34
:1019A000026822F48072026075492068884228D05B
:1019B000A84226D0B04224D0404522D0484520D06D
:1019C00050451ED058451CD071491831884218D056
:1019D0007049884215D06F491831884211D06D493D
:1019E000303188420DD06B494831884209D069496D
:1019F0006031884205D067497831884201D0654915
:101A00009031016821F0010101600EE001F012F94E
:101A10000099401A052808D9202262650321002078
:101A200084F8351084F8340017E73868C007EDD122
:101A3000534A0121206890422ED0A8422CD0B042B7
:101A40002AD0404528D0484526D0504524D0584576
:101A500022D04F4B183398421ED04E4B98421BD089
:101A60004C4B1833984217D04A4B3033984213D01E
:101A7000484B483398420FD0464B603398420BD0C6
:101A8000444B7833984207D0424B9033984203D06E
:101A9000404BA833984208D194F85C703F23A06D66
:101AA00007F01F07BB40836007E094F85C30A06D2F
:101AB00003F01F0301FA03F34360206890424DD006
:101AC000A8424BD0B04249D0404547D0484545D0C8
:101AD000504543D0584541D02D4A183290423DD010
:101AE0002C4A90423AD02B4A1832904236D0294A9A
:101AF0003032904232D0274A483290422ED0254A86
:101B0000603290422AD0234A7832904226D0214A2D
:101B10009032904222D01F4AA83290421ED01E4AD4
:101B200090421BD01C4A1432904217D01A4A2832D5
:101B3000904213D0184A3C3290420FD0164A50328D
:101B400090420BD0144A6432904207D0124A783245
:101B5000904203D0104A8C3290420BD1D4E9190242
:101B60004260E06E30B1026822F480720260D4E913
:101B70001C024260002084F8351084F834006DE6C1
:101B800010000240580002407000024088000240ED
:101B9000A000024010040240085402582DE9F05FF2
:101BA00028B190F83510022904D080214165012028
:101BB000BDE8F09F904C904B0168183C18338E4A5A
:101BC000DFF83C92A1428D4CDFF838E28E4FDFF80F
:101BD0003CB2DFF83CA28F4D8F4E31D091422FD0D6
:101BE00099422DD0A1422BD0494529D0714527D00B
:101BF000B94225D0DFF810C20CF1180C61451FD096
:101C0000DFF808C2ACF1600C614519D0DFF8FCC107
:101C1000ACF1480C614513D0DFF8F0C1ACF1300CE9
:101C200061450DD0DFF8E4C1ACF1180C614507D077
:101C3000594505D0514503D0A94201D0B1422CD11C
:101C4000DFF8B4C14FF0040880F83580ACF1180C0F
:101C500061451DD091421BD0994219D0A14217D0A5
:101C6000494515D0714513D0B94211D06648183096
:101C700081420DD065486038814209D063484838B8
:101C8000814205D061483038814201D05F48183820
:101C9000086820F001000860ABE0D1F800C02CF02B
:101CA0000E08DFF854C1C1F80080ACF1180C0168CF
:101CB000614527D0914225D0994223D0A14221D01D
:101CC00049451FD071451DD0B9421BD0DFF838C13E
:101CD0000CF1180C614515D0DFF830C1ACF1600C87
:101CE00061450FD0DFF824C1ACF1480C614509D043
:101CF000DFF818C1ACF1300C614503D0DFF80CC13E
:101D0000ACF1180CD1F800C02CF0010CC1F800C0E7
:101D1000DFF8E4804FF0010C0168A8F11808414594
:101D200046D0914244D0994242D0A14240D0494548
:101D30003ED071453CD0B9423AD0334A1832914234
:101D400036D0324A603A914232D0304A483A9142D3
:101D50002ED02E4A303A91422AD02C4A183A91423B
:101D600026D0594524D0514522D0A94220D0B14295
:101D70001ED02A4A91421BD0284A1432914217D0D1
:101D8000264A2832914213D0244A3C3291420FD045
:101D9000224A503291420BD0204A6432914207D0FD
:101DA0001E4A7832914203D01C4A8C32914218D19B
:101DB000016E0A6822F480720A6090F85C20816DDE
:101DC00002F01F020CFA02F24A60D0E919124A60CE
:101DD000C16E31B10A6822F480720A60D0E91C1227
:101DE0004A600022016D80F835C080F8342001B1CE
:101DF00088470020DCE6000028000240580002402E
:101E00007000024088000240A000024070040240BE
:101E100088040240A0040240B8040240085402585A
:101E20002DE9FC5F0446F74E0020DFF8D8830090D0
:101E30004FF41652F44808F11808A56DDFF8C49362
:101E4000DFF8C0A3016809F1300920680AF1480AE7
:101E5000B1FBF2F1B04201912F68D5F800C0DFF874
:101E6000ACB335D04146884232D0484530D0504599
:101E70002ED058452CD0E5491831884228D0E34966
:101E80003031884224D0E1494831884220D0E049AD
:101E900088421DD0DE491831884219D0DC493031E2
:101EA000884215D0DA494831884211D0DFF860E322
:101EB0000EF1600E70450BD0D54A7832904207D0B3
:101EC000D34B9033984203D0D149A83188427DD179
:101ED00094F85C20082102F01F0201FA02F23A4253
:101EE0004AD0B04232D0404530D048452ED050453F
:101EF0002CD058452AD0C54A1832904226D0C34A21
:101F00003032904222D0C14A483290421ED0C04A5C
:101F100090421BD0BE4A1832904217D0BC4A303291
:101F2000904213D0BA4A483290420FD0B84A603239
:101F300090420BD0B64A7832904207D0B44A9032E1
:101F4000904203D0B24AA832904203D1026802F014
:101F5000040202E0026802F008026AB1026822F09C
:101F60000402026094F85C0000F01F008140A96048
:101F7000606D40F00100606594F85C00012100F0A4
:101F80001F008140394240D02068B04234D04045E3
:101F900032D0484530D050452ED058452CD09B4AA1
:101FA0001832904228D0994A3032904224D0974A31
:101FB0004832904220D0964A90421DD0944A18321E
:101FC000904219D0924A3032904200E0AFE113D0F3
:101FD0008F4A483290420FD08D4A603290420BD0E7
:101FE0008B4A7832904207D0894A9032904203D08F
:101FF000874AA83290427DD1406910F0800F04D00A
:10200000A960606D40F00200606594F85C000421F6
:1020100000F01F00814039423ED02068B04232D0EB
:10202000404530D048452ED050452CD058452AD078
:10203000764A1832904226D0744A3032904222D0EA
:10204000724A483290421ED0714A90421BD0704A68
:102050001832904217D06E4A3032904213D06C4AF8
:10206000483290420FD06A4A603290420BD0684AA0
:102070007832904207D0664A9032904203D0644A48
:10208000A83290424ED1006810F0020F04D0A9602F
:10209000606D40F00400606594F85C00102100F071
:1020A0001F008140394258D02068B04234D04045AA
:1020B00032D0484530D050452ED058452CD0534AC8
:1020C0001832904228D0514A3032904224D04F4AA0
:1020D0004832904220D04E4A90421DD04C4A18328D
:1020E000904219D04A4A3032904215D0484A48327C
:1020F000904200E014E00FD0454A603290420BD08D
:10210000434A7832904207D0414A9032904203D0FD
:102110003F4AA832904207D1006800F0080006E06C
:10212000006872E70068B7E7006800F00400A0B13B
:10213000A96020680168490304D50068000308D538
:10214000A16C07E00168C90503D4016821F008010A
:102150000160216C09B12046884794F85C00202179
:1021600000F01F008140394279D02068B04232D05F
:10217000404530D048452ED050452CD058452AD027
:10218000224A1832904226D0204A3032904222D041
:102190001E4A483290421ED01D4A90421BD01C4A13
:1021A0001832904217D01A4A3032904213D0184A4F
:1021B000483290420FD0164A603290420BD0144AF7
:1021C0007832904207D0124A9032904203D0104A9F
:1021D000A832904203D1006800F0100002E00068CD
:1021E00000F00200B0B3A96094F83500042820681C
:1021F00001680FD049037ED5006800032BD4616CC1
:102200002AE00000100002401C0000247000024080
:102210001004024021F0160101602068416921F09C
:1022200080014161206C08B9A06C20B12068016870
:1022300021F00801016094F85C303F21012003F097
:102240001F0300229940A96084F8350084F83420E7
:10225000216D65E003E0E16B09B120468847606DC0
:1022600000287DD0606DC00759D02068042184F813
:102270003510B0422BD0404529D0484527D0504595
:1022800025D0584523D09D49884220D09B491831FC
:1022900088421CD099493031884218D098498842E8
:1022A00015D097491831884211D09549303188426C
:1022B0000DD093494831884209D091496031884214
:1022C00005D08F497831884201D08D49903101681D
:1022D00021F00101016020680099019A491C0091D8
:1022E000914202D80168C907F6D10068C00710D032
:1022F00003200FE0FFE70168C905ACD403680121A2
:10230000002223F01003036084F8351084F8342091
:10231000A1E7012084F83500002084F83400E16C46
:1023200000291DD002B02046BDE8F05F084775497E
:1023300088421DD073491431884219D0714928311F
:10234000884215D06F493C31884211D06D495031D7
:1023500088420DD06B496431884209D0694900E058
:1023600084E07831884203D066498C3188427DD13F
:1023700094F85C800427016808F01F0807FA08F742
:1023800017EA0C0F009746D04F0744D500980F046A
:10239000686003D5C8033CD4A16CC1E7880638D473
:1023A0002068B0422DD055496039884229D048452F
:1023B00027D0504525D0584523D05049884220D0B9
:1023C0004E49183188421CD04C493031884218D0CF
:1023D0004B49884215D04A491831884211D04849A2
:1023E000303188420DD046494831884209D0704585
:1023F00007D0904205D0984203D04149A831884285
:1024000003D1016821F0080102E0016821F0040114
:102410000160216C84E7022707FA08F717EA0C0F1E
:1024200000974ED08F074CD500980F04686003D5F5
:10243000C80344D4616C73E7880640D42068B04276
:102440002FD02E49603988422BD0484529D050459D
:1024500027D0584525D02949884222D0274918310C
:1024600088421ED025493031884200E044E018D02F
:102470002349884215D022491831884211D0204979
:10248000303188420DD01E494831884209D070450C
:1024900007D0904205D0984203D01949A83188420C
:1024A00003D1016821F0140102E0016821F00A0162
:1024B0000160012184F83510002084F83400E16BBC
:1024C0002EE7082202FA08F212EA0C0F14D00907CC
:1024D00012D5016821F00E01016094F85C10012012
:1024E000002201F01F0100FA01F16960606584F8C3
:1024F000350084F8342012E7BDE8FC9F88000240D4
:1025000010040240085402582DE9F05F044600F020
:1025100091FB002C07467DD0E34E022120684FF04E
:102520000308DFF888934FF00005DFF884A3B0427A
:10253000DFF880B334D0DC4A1832904230D04845BE
:102540002ED050452CD058452AD0DA4A1832904225
:1025500026D0D84A3032904222D0D64A48329042D1
:102560001ED0D54A90421BD0D34A1832904217D081
:10257000D14A3032904213D0CF4A483290420FD0E5
:10258000CD4A603290420BD0CB4A7832904207D08D
:10259000C94A9032904203D0C74AA83290427DD1B6
:1025A00084F83510B04284F834502ED0BE4918312A
:1025B00088422AD0484528D0504526D0584524D0B6
:1025C000BC491831884220D0BA49303188421CD0E9
:1025D000B8494831884218D0B749884215D0B64921
:1025E0001831884211D0B449303188420DD0B249F7
:1025F0004831884209D0B0496031884205D0AE499F
:102600007831884201D0AC499031016821F0010154
:10261000016008E027E100BF00F00CFBC01B0528AB
:1026200001D920211CE120680068C007F4D104F121
:1026300008002168D4E9053C8E4685C80968104326
:10264000D4E907281F43636A38439C4F40EA0C00D3
:102650001043394040EA0800042B40EA010003D14E
:10266000D4E90B1211430843954909686FF30F0130
:10267000B1F1005F0FD36168A1F12902052A08D9E1
:10268000163A032A05D9083A012A02D94F390329F3
:1026900001D840F48010CEF8000000E023E020686C
:1026A000676A4069042F20F0070047EA00070DD150
:1026B000D4E90A01074349B12046FEF7DBFB28B104
:1026C00040206065012184F83510CCE02068476126
:1026D0002046FEF7EDFA94F85C203F2102F01F023D
:1026E0009140816054E0774A90421BD0754B14337F
:1026F000984217D0734B2833984213D0714B3C3318
:1027000098420FD06F4B503398420BD06D4B6433CF
:10271000984207D06B4B7833984203D0694B8C3387
:1027200098427DD184F8351084F83450664B0168A6
:10273000A26801EA030E402A73D0802A72D00022D8
:10274000D4E90378D4E9053142EAD70242EAD8084D
:102750005C4AD4E9077C48EAD30848EAD10141EA57
:10276000D701524241EA1C11142341EA0E010160D3
:1027700020681044B0FBF3F08000E0652046FEF7CF
:1027800097FA94F85C20012102F01F029140416009
:102790002068B04257D044491831884253D0484548
:1027A00051D050454FD058454DD0424918318842FC
:1027B00049D040493031884245D03E49483188426D
:1027C00041D03D4988423ED03B49183188423AD0F9
:1027D00039493031884236D037494831884232D081
:1027E0003549603188422ED03349783188422AD029
:1027F00031499031884226D02F49A831884222D0D1
:10280000304988421FD02F49143188421BD02D49AE
:102810002831884217D02B493C31884213D002E03E
:102820001DE017E018E02749503188420BD02549B8
:102830006431884207D023497831884203D0214946
:102840008C31884229D12046FEF78CFAA068802876
:102850000CD00CE0102273E74FF4804270E7402167
:10286000616584F835800120BDE8F09F6560216EC8
:1028700020790860D4E9190141606068401E07288A
:1028800008D82046FEF7BCFAE06E0560D4E91C01CA
:10289000416002E0E566256765670120656584F8AB
:1028A00035000020E0E70000100002404000024038
:1028B0005800024070000240100402403F8010FEA9
:1028C0000010005C085402580F00FEFF70B504466B
:1028D00000F0B0F90546601C02D0044800780444BA
:1028E00000F0A8F9401BA042FAD370BD10000024EC
:1028F000F0B587B014216846FDF7A4FD27480168AC
:10290000002949D1012101602548016841F4805125
:102910000160006802240027694600F48050059099
:102920004FF683700C258DE8910003261D48CDE9F4
:10293000036500F051F848F2371069468DE89100C0
:102940001948CDE9036500F047F84CF20370694679
:102950008DE891001548CDE9036500F03DF84FF68C
:102960003F0069468DE891001148CDE9036500F00C
:1029700033F8CDE90054029769460E48CDE9036566
:1029800000F02AF820206946CDE900040A48CDE984
:102990000246049500F020F807B0F0BD00000024C6
:1029A000D44402580010025800180258000C025873
:1029B0000014025800080258001C025870474FF0DB
:1029C000B04110B5D1F88820024203D0C1F8880088
:1029D000FFF7F4FF10BD00002DE9F84F03247D4DF3
:1029E00000234FF001094FF0B04B4FF00F0AE9E020
:1029F00009FA03F73A4076D00E7906F00306012E65
:102A000001D0022E18D1D0F808C04FEA430ECE688C
:102A100004FA0EF82CEA080C06FA0EF646EA0C0642
:102A20008660D0F804C00E792CEA070CC6F30016B5
:102A30009E4046EA0C0646600E79F643B6070BD078
:102A4000C6684FEA43088F6804FA08FC26EA0C06B9
:102A500007FA08F73743C7600E7906F00306022E1F
:102A600012D1DE080F694FEA437C00EB8606B646BA
:102A7000366A4FEADC6C0AFA0CF807FA0CF726EA19
:102A800008063743CEF820700F7906684FEA4308EE
:102A900007F0030704FA08FC07FA08F726EA0C0611
:102AA000374307604E6816F4403F1CD04A4E3768E3
:102AB00047F00207376036689F0706F00206009667
:102AC00023F0030606F1B046B6463F0FD6F8086479
:102AD000DFF808810AFA07FC404526EA0C0603D114
:102AE0004FF0000C41E06CE0DFF8F4C0604502D12B
:102AF0004FF0010C39E0DFF8ECC0604502D14FF037
:102B0000020C32E0DFF8E0C0604502D14FF0030C68
:102B10002BE0DFF8D8C0604502D14FF0040C24E070
:102B2000DFF8CCC0604502D14FF0050C1DE0DFF8A6
:102B3000C4C0604502D14FF0060C16E0DFF8B8C003
:102B4000604502D14FF0070C0FE0DFF8B0C06045E0
:102B500002D14FF0080C08E0DFF8A4C0604502D1B4
:102B60004FF0090C01E04FF00A0C0CFA07FC4CEA9C
:102B7000060CCEF808C44F68DBF80060FF0226EAB6
:102B8000020600D516435F46CBF80060D1F804C0BA
:102B9000DBF804605FEA8C2C26EA020600D51643B7
:102BA0007E606E684F6826EA0206BF0300D51643B2
:102BB0006E602E684F6826EA0206FF0300D51643B2
:102BC0002E605B1C0A6832FA03F67FF411AFBDE891
:102BD000F88F000080000058F444025800000258AA
:102BE0000004025800080258000C02580010025855
:102BF0000014025800180258001C02580020025805
:102C0000002402580069084000D001207047426942
:102C100021EA02030A4043EA0241816170470AB196
:102C2000816170470904FBE701480068000C7047A8
:102C30000010005C0148806870470000100000240C
:102C400030B590F84120202A24D190F84020012A64
:102C500020D0012380F84030242280F84120202316
:102C600000240268156825F00105156002681568E2
:102C700025F480551560026815680D4315600168DC
:102C80000A6842F001020A6080F8413080F8404052
:102C9000002030BD022030BD30B590F84120202A00
:102CA00022D190F84020012A1ED0012380F8403024
:102CB000242280F84120202400250268136823F094
:102CC000010313600268136823F4706343EA01216F
:102CD000116001680A6842F001020A6080F8414010
:102CE00080F84050002030BD022030BD70B5040097
:102CF00004D094F84100002510B106E0012070BD19
:102D0000204684F8405000F04DF8242084F841001B
:102D10002068016821F001010160D4E9001020F071
:102D2000706008612068816821F400418160E0687A
:102D300021680128A06806D040F404408860E0685B
:102D4000022803D006E040F40040F7E721684FF482
:102D50000060486020212068114A436813434360A3
:102D60002068C26822F40042C26054F8106B0DCC97
:102D7000104340EA0320F06054F81C3CD4E9000200
:102D80001043186054F81C0D026842F00102026002
:102D9000656484F84110256384F84250002070BDBA
:102DA0000080000210B586B0044614216846FDF785
:102DB00049FB13492068884220D11248016841F03C
:102DC0000201016000680423122200F00200059055
:102DD00000204FF4407100916946CDE90120CDE912
:102DE00003030948FFF7F8FD06480830016841F47D
:102DF00000110160006800F40010059006B010BDDD
:102E000000540040E044025800040258032010B56A
:102E100000F0F2F901F0D4FB0F4A1049146813686E
:102E2000C4F3032203F00F038A5CC95C02F01F02A3
:102E300001F01F01D0400A4A20FA01F1116009494E
:102E400008600F2000F010F808B1012010BD00F05C
:102E500097F9002010BD000018440258B8AE009049
:102E6000200000241C00002470B50D4D0446287875
:102E7000A0B14FF47A71B1FBF0F00A490968B1FBD7
:102E8000F0F002F045FD48B9102C07D2002221468F
:102E9000501E00F091F900206C6070BD012070BDE3
:102EA000100000241C0000242DE9F041044690F895
:102EB000A00016460F4601281DD0012584F8A05019
:102EC000022084F8A10006EB860000EBC600342245
:102ED00004EB80003830FDF78EFA32463946204642
:102EE00003F0E0FC216800204D6284F8A15084F8D2
:102EF000A000BDE8F0810220FBE770472DE9F0411A
:102F00000446006800274FF00408856B466B69078C
:102F100015D5710713D5426B22F004024263206875
:102F2000C0F83C80D4F8A40040F00100C4F8A4002C
:102F300084F8A180204684F8A070FFF7DEFFA80780
:102F400016D5B00714D520680222436B23F0020384
:102F500043632068C263D4F8A40040F00200C4F8C0
:102F6000A40084F8A180204684F8A070FFF7C5FF74
:102F700005EA06004FF00108C0070ED021684A6B31
:102F800022F001024A632168C1F83C8084F8A180E4
:102F9000204684F8A07000F091F8280710D530077B
:102FA0000ED520680822436B23F008034363206892
:102FB000C26384F8A180204684F8A07000F0DEF897
:102FC000BDE8F0812DE9F041040004D094F8A1009F
:102FD000002518B107E00120BDE8F081204684F803
:102FE000A05000F06DF83448022184F8A1100122AD
:102FF00002CC8B6923F070438B6194E84A0019433B
:10300000E3681E4354F8043D31439E69314399619E
:1030100021688B6803408B602168A68AA7698B684A
:103020003B4343EA06438B602168CB680340CB6097
:103030002168A38B276ACE683E4346EA0346CE60EA
:1030400021680B6903400B612368A68CA76A196984
:10305000394341EA0641196121684B6903404B61DC
:103060002068A38D266B4169314341EA03414161E8
:10307000236894F8351094F83600DE6A000406F0F0
:103080007F46DE62236840EA012094F83460D96A02
:1030900031430143D9622068416B41F0060141632D
:1030A0002068816941F001018161C4F8A45084F86D
:1030B000A120002090E7000000F800F07047000019
:1030C000F0B587B0044614216846FDF7BBF92649E0
:1030D0002068884245D12548016841F00801016017
:1030E000006800F0080005902048001F016841F4C6
:1030F00080610160016801F480610591016841F41B
:1031000000710160016801F400710591016841F4EA
:1031100080710160006802240025694600F4807017
:10312000059003260E27FF208DE8F1001048FFF7D9
:1031300053FC4FF6FF7069468DE8F1000D48FFF72C
:103140004BFC4FF4704069468DE8F1000A48FFF7E8
:1031500043FC00220C21582000F02EF8582000F0EB
:103160001DF807B0F0BD000000100050E444025804
:10317000002802580024025800200258704700001E
:10318000054808B5016841F002010160006800F0DF
:103190000200009008BD0000F4440258002809DB3A
:1031A000410900F01F028900012001F1E021904057
:1031B000C1F80001704700000E4BF0B41B680D46CB
:1031C000C3F30223C3F10706042E00D90426191DF8
:1031D000072901D2002300E0DB1E012404FA06F1D6
:1031E0009C40491E2940641E994014402143F0BC74
:1031F00005F05CBE0CED00E0064900F0070210B5DA
:103200004FF6FF040868044B204040EA02201843B0
:10321000086010BD0CED00E00000FA05134970B520
:103220000A68D243520705D5096801F007018142B7
:1032300013D118E00A6822F0070202430A60FFF780
:10324000F9FC0A4D4FF47A760446083D07E000BFCA
:10325000FFF7F0FC001BB04201D9012070BD2868C7
:10326000C0438004F4D4002070BD00000C48025814
:1032700010B501F05FF905490968054AC1F302116B
:10328000515C01F01F01C84010BD000020440258ED
:10329000B8AE00904A4930B5494C0B1D0A680C3451
:1032A00009681D68246802F0030305F00102C1F3F8
:1032B0000511C4F3CC04002914FB02F200EE102A1D
:1032C000F8EE400A76D0414A9FED3E1ADFED3E1AF5
:1032D000B7EE000A23B1012B5AD0022B18D15CE0C3
:1032E000374C283C23689B0612D5394B246801EEE5
:1032F000901A1168C4F3C104F8EE612AE34001EEAC
:10330000903AC1F30801F8EE611A81EEA22A07E0B3
:1033100002EE101A1168F8EE422A81EEA22A45E068
:1033200001EE901A1168F8EE611A40EE811A71EE02
:10333000800A62EE200AC1F3462101EE101AB8EEAF
:10334000411A31EE001AC0EE811ABCEEE11A80ED8E
:10335000001A1168C1F3064101EE101AB8EE411AC5
:1033600031EE001AC0EE811ABCEEE11A80ED011AAE
:103370001168C1F3066101EE101AB8EE411A31EE80
:10338000000A80EE801ABCEEC10A80ED020A30BD50
:1033900001EE901ADFED0F2A03E001EE901ADFED47
:1033A0000E2A1168F8EE611A82EEA12AC1F3080113
:1033B000B6E7FFE7002101604160816030BD000099
:1033C00028440258000000390024744C304402584C
:1033D0000090D0030024744A20BCBE4B494930B54C
:1033E000484C0B1D0A68143409681D68246802F0F3
:1033F0000303C5F30012C1F30531C4F3CC04002963
:1034000014FB02F200EE102AF8EE400A75D03F4A93
:103410009FED3D1AB7EE000A6BB1DFED3D1A012BAF
:1034200001D0022B64D002EE101A1168F8EE422A85
:1034300081EEA22A21E0334C283C23689B0612D55A
:10344000344B246801EE901A1168C4F3C104F8EEFD
:10345000612AE34001EE903AC1F30801F8EE611AE7
:1034600081EEA22A0BE001EE901ADFED2B2A00BFBD
:10347000F8EE611A116882EEA12AC1F3080101EE8B
:10348000901A1168F8EE611A40EE811A71EE800A06
:1034900062EE200AC1F3462101EE101AB8EE411A7D
:1034A00031EE001AC0EE811ABCEEE11A80ED001A6E
:1034B0001168C1F3064101EE101AB8EE411A31EE5F
:1034C000001AC0EE811ABCEEE11A80ED011A1168F3
:1034D000C1F3066101EE101AB8EE411A31EE000A8E
:1034E00080EE801ABCEEC10A80ED020A30BD04E015
:1034F00001EE901ADFED092ABAE700210160416070
:103500008160F3E72844025800000039384402582B
:103510000024744A0090D0030024744C20BCBE4B9D
:10352000494930B5484C0B1D0A681C3409681D68B0
:10353000246802F00303C5F30022C1F30551C4F36C
:10354000CC04002914FB02F200EE102AF8EE400A27
:1035500075D03F4A9FED3D1AB7EE000A6BB1DFED23
:103560003D1A012B01D0022B64D002EE101A116813
:10357000F8EE422A81EEA22A21E0334C283C23684F
:103580009B0612D5344B246801EE901A1168C4F3DF
:10359000C104F8EE612AE34001EE903AC1F308015C
:1035A000F8EE611A81EEA22A0BE001EE901ADFED2F
:1035B0002B2A00BFF8EE611A116882EEA12AC1F32E
:1035C000080101EE901A1168F8EE611A40EE811AB6
:1035D00071EE800A62EE200AC1F3462101EE101A54
:1035E000B8EE411A31EE001AC0EE811ABCEEE11AB3
:1035F00080ED001A1168C1F3064101EE101AB8EE11
:10360000411A31EE001AC0EE811ABCEEE11A80EDCB
:10361000011A1168C1F3066101EE101AB8EE411AE1
:1036200031EE000A80EE801ABCEEC10A80ED020A7B
:1036300030BD04E001EE901ADFED092ABAE700215F
:10364000016041608160F3E72844025800000039BE
:10365000404402580024744A0090D0030024744C63
:1036600020BCBE4B2DE9F04FAC4A0546DFF8A8A2BE
:1036700080F48070DFF8AC9289B01311AA4C084333
:10368000A748AAF104064FF0805C4FF000582CD0F8
:1036900085F400770F4357D0DFF87CB285F480675C
:1036A0000F430BF1080B61D085F400670F4374D012
:1036B00085F480570F436ED085F400570F434FF4C5
:1036C00080394FF4003E67D085F400270F4371D056
:1036D00085F480370F436ED085F480460E436BD05F
:1036E00085F400420A4368D02AE0DAF8001001F0BD
:1036F0000701052924D2DFE801F075BC7D25B10062
:1037000006A8FFF7C7FD079809B0BDE8F08F684627
:10371000FFF764FE0098F7E703A8FFF701FF03989F
:10372000F2E72068C0F3C10022FA00F0ECE722685B
:10373000D20571D561456FD11846E5E74145E3D023
:103740000020E1E74846DFE7DAF8001001F4E07115
:1037500080294FD004DC002944D04029F0D188E0F2
:10376000C029EFD0B1F5807FEAD177E0DBF8001017
:1037700001F46001B1F5800F3CD004DC91B3B1F5E8
:10378000001FDDD175E0B1F5C00FDBD0B1F5000F42
:10379000D6D163E001E018E030E0DBF8001001F082
:1037A000E061B1F1007F25D008DCD9B1B1F1807FB3
:1037B000C6D15EE049E06CE079E09CE0B1F1407F89
:1037C000C0D0B1F1806FBBD148E0DAF8001001F44D
:1037D000E041B1F5005F0DD005DC19B1B1F5805FB6
:1037E000AED146E094E0B1F5405FABD0B1F5804F8B
:1037F000A6D133E020688000A2D58DE7DAF800106A
:1038000001F4E021B1F5403F6CD006DC61B14945DF
:103810007AD0714594D157E037E0B1F5802F65D06B
:10382000B1F5A02F8CD10CE000F0A6FE6CE7684645
:10383000FFF7D4FD019867E703A8FFF771FE04982E
:1038400062E721688903F1D47AE7DBF8001011F40C
:1038500040310ED0494510D07145F5D13168256809
:1038600001F040516D077FF562AF00297FF45FAF33
:1038700057E720680001E7D549E720688000E3D5D5
:1038800003A8FFF74DFE05983EE722689203DBD5BB
:1038900054E7306810F480303AD04845D4D12068DD
:1038A0000001D1D56846FFF799FD02982CE7DBF8B7
:1038B000001001F0E041B1F1405F13D008DC71B1BC
:1038C000614521D04145BFD120688000B4D437E79D
:1038D000B1F1804F0AD0B1F1A04FB2D030E7FFF77D
:1038E000C7FC11E720684007AED51AE72068C0057D
:1038F000AAD521E708E0DAF8001011F04051A0D075
:10390000614505D041459FD1206800018FD417E75C
:103910002068800198D5F3E6504402580090D00307
:1039200040787D010080BB00004402582DE9FE4F25
:103930000546DFF8E48350F8081B0024F64FC9431E
:10394000019005F12800264608F12408009008019E
:103950001DD4A86E50B1B0F5801F0CD0B0F5001F7B
:103960000ED0B0F5401F1ED001240FE0386840F49F
:103970000030386017E00198022103F05FFC03E09B
:103980000098022103F0EAFC04000CD026462888A7
:10399000C043C00523D4A86D05281ED2DFE800F07F
:1039A0000C11161B1B00AA6ED8F8001021F4401150
:1039B0001143C8F80010EAE7386840F40030386076
:1039C00009E00198002103F039FC03E00098002190
:1039D00003F0C4FC044674B100E0012426462888A4
:1039E000C043800528D4E86D80281ED00CDC90B13F
:1039F00040280ED114E0AA6DD8F8001021F007017C
:103A00001143C8F80010EAE7C02813D0B0F5807F52
:103A100010D001240FE0386840F40030386009E02D
:103A20000198002103F00AFC03E00098002103F054
:103A300095FC04469CB126462888DFF8DC92C043FA
:103A400009F12C0940052CD4D5F8A800B0F5800F59
:103A500020D00DDCA0B1B0F5001F0FD115E0EA6D4C
:103A6000D8F8001021F4E0711143C8F80010E3E722
:103A7000B0F5C00F13D0B0F5000F10D001240FE047
:103A8000386840F40030386009E00198002103F004
:103A9000D5FB03E00098002103F060FC04467CB1F4
:103AA00026462888C04300052DD4D5F8AC00B0F1D7
:103AB000007F21D00EDCA8B1B0F1807F10D116E0DC
:103AC000D5F8A820D9F8001021F460011143C9F8F5
:103AD0000010E6E7B0F1407F13D0B0F1806F10D056
:103AE00001240FE0386840F40030386009E00198A4
:103AF000002103F0A3FB03E00098002103F02EFC5B
:103B0000044674B126462868C04380011FD4E86C7F
:103B1000D8B110280FD0202812D0302815D0012479
:103B200014E0D5F8AC20D9F8001021F0E061114381
:103B3000C9F80010E7E7386840F40030386004E066
:103B40000198022103F07AFB044674B126462888C6
:103B5000C043C0042BD4286EB0F5005F20D00DDC2C
:103B6000A0B1B0F5805F0FD115E06B48EA6C203052
:103B7000016821F0300111430160E8E7B0F5405FD2
:103B800013D0B0F5804F10D001240FE0386840F416
:103B90000030386009E00198002103F04FFB03E09A
:103BA0000098002103F0DAFB04468CB126462888F1
:103BB000C043800429D4686EB0F5403F23D010DCA8
:103BC00008B3B0F5803F14D0B0F5003F0FD115E039
:103BD0002A6ED8F8001021F4E0411143C8F8001013
:103BE000E5E7B0F5802F0ED0B0F5A02F0BD0012463
:103BF0000AE00198012103F021FB03E00098012174
:103C000003F0ACFB044694B126462888C043400428
:103C10002AD4D5F8B000B0F1405F23D010DC08B34F
:103C2000B0F1805F14D0B0F1005F0FD115E06A6E83
:103C3000D8F8001021F4E0211143C8F80010E4E79F
:103C4000B0F1804F0ED0B0F1A04F0BD001240AE0AC
:103C50000198012103F0F2FA03E00098012103F03A
:103C60007DFB044674B126462888C04300041FD457
:103C7000286FD8B1B0F1805F0ED0B0F1005F10D0E6
:103C8000012414E0D5F8B020D9F8001021F0E0416B
:103C90001143C9F80010E7E7386840F40030386095
:103CA00004E00198012103F0C9FA044674B12646E4
:103CB0002868C043C0011ED4A86CD0B101280ED022
:103CC000022811D0032814D0012413E02A6FD8F859
:103CD000001021F040511143C8F80010E8E738689F
:103CE00040F40030386004E00198022103F0A6FAA5
:103CF0000446ACB126462868DFF81CB0C043ABF1DF
:103D00001C0B400252D40548016841F480710160E7
:103D1000FEF790FF824611E02C44025800480258FA
:103D2000FA48AA6C016821F0030111430160E2E73F
:103D3000FEF780FFA0EB0A00642835D8F44800683D
:103D4000C005F5D58CBBDFF8C4A3B5F8B4100AF1F3
:103D5000240ADAF8000001F4407100F4407088424F
:103D600011D0DAF80010DAF8002021F4407142F4A2
:103D70008032CAF80020DAF8002022F48032CAF833
:103D80000020CAF80010D5F8B400B0F5807F1AD131
:103D9000FEF750FF029012E0FEF74CFF0299411A25
:103DA00041F2883081420AD9032426462878DFF878
:103DB0005CA3C0430AF1080AC00721D03CE0DAF84E
:103DC00000008007E8D5D5F8B410C1F3012003281E
:103DD00058460DD0016821F47C510160B5F8B4203B
:103DE000DAF80010C2F30B021143CAF80010DDE745
:103DF000C84A036802EA111223F47C511143ECE72C
:103E0000E86F182816D005DCA0B1082808D01028C3
:103E100004D10AE020280DD028280BD001240AE084
:103E20000198012103F00AFA03E00098012103F050
:103E300095FA044664B126462878C04380071ED40C
:103E4000A86F062819D2DFE800F0160C1116161616
:103E5000EA6FDAF8001021F038011143CAF80010B7
:103E6000EAE70198012103F0E9F903E00098012154
:103E700003F074FA04467CB100E001242646287859
:103E8000C04340071FD4D5F89400062819D2DFE8B4
:103E900000F0160C11161616AA6FDAF8001021F0B1
:103EA00007011143CAF80010E9E70198012103F066
:103EB000C5F903E00098012103F050FA0446A4B1CB
:103EC00000E0012426462878C04380062BD4D5F88C
:103ED0009000B0F1405F24D011DC10B3B0F1805FEE
:103EE00015D0B0F1005F10D116E0D5F89420D9F8C4
:103EF000001021F007011143C9F80010E3E7B0F109
:103F0000804F0ED0B0F1A04F0BD001240AE00198F1
:103F1000002103F093F903E00098022103F01EFA58
:103F2000044694B126462878C04340062BD4D5F8E1
:103F30009C00B0F5406F24D011DC10B3B0F5806F59
:103F400015D0B0F5006F10D116E0D5F89020DAF852
:103F5000001021F0E0411143CAF80010E3E7B0F58A
:103F6000805F0ED0B0F5A05F0BD001240AE001986D
:103F7000002103F063F903E00098022103F0EEF959
:103F8000044694B126462878C04300062BD4D5F8C1
:103F9000A000B0F5C04F24D011DC10B3B0F5005F25
:103FA00015D0B0F5804F10D116E0D5F89C20D9F887
:103FB000001021F4E0511143C9F80010E3E7B0F517
:103FC000004F0ED0B0F5204F0BD001240AE001982D
:103FD000002103F033F903E00098022103F0BEF959
:103FE000044654B126462878C04300071ED4D5F8AD
:103FF0008400B0F5805F0AD00FE0D5F8A020D9F892
:10400000001021F460411143C9F80010EBE700985B
:10401000022103F0A3F900B10126D5F88420DAF8D3
:10402000001021F440511143CAF800102878C04311
:10403000C00613D4D5F89800B0F5807F05D100985C
:10404000022103F08BF900B10126D5F89820D9F8A8
:10405000001021F440711143C9F800102868C043D2
:10406000000316D4D5F8A40038B1B0F5803F09D0CC
:10407000B0F5003F0BD001240AE00198002103F0C5
:10408000DDF803E00098022103F068F904468CB1E2
:1040900026462868C043400322D4D5F88800B0F5EE
:1040A000801F11D0B0F5001F13D0B0F5401F15D000
:1040B000012414E0D5F8A420D9F8001021F44031EF
:1040C0001143C9F80010E4E7386840F40030386064
:1040D00004E00098012103F041F904465CB1264652
:1040E0002868C043C00323D4286DA8B1B0F5803F31
:1040F00017D001241BE0D5F88820DAF8001021F44D
:1041000040111143CAF80010EAE700004C4402587D
:1041100000480258CFFFFF00386840F40030386094
:1041200004E00198022103F089F80446E4B1264630
:104130002868C043800005D40098022103F00EF9DE
:1041400000B101262868C04380031BD4D5F8800045
:10415000B0B1B0F5807F0FD0B0F5007F10D0B0F5D2
:10416000407F0DD001240CE05A482A6D016821F4EB
:10417000803111430160DBE7386840F4003038607B
:10418000ECB326462868C043C00207D46A6FD8F84B
:10419000001021F000411143C8F800102868C04306
:1041A000C00008D4D5F8B820DBF8001021F4804115
:1041B0001143CBF800102868C043800207D4EA6E90
:1041C000D8F8001021F080711143C8F80010286859
:1041D000C04340000CD4DBF8001021F40041CBF8C0
:1041E0000010DBF80010D5F8BC201143CBF800100C
:1041F0002868C04308D437486A6D016800E018E0B9
:1042000021F04051114301602868C043000208D4E6
:10421000D5F88C20DAF8001021F440011143CAF8D7
:10422000001028790024C04300F0010020430AD088
:104230000FE0D5F88020DAF8001021F44071114326
:10424000CAF800109EE70198002102F0F7FF00B1C4
:1042500006462879C04300F00200204305D10198AA
:10426000012102F0EBFF00B106462879C04300F0BF
:104270000400204305D10198022102F0DFFF00B1C4
:1042800006462879C04300F00800204305D1009875
:10429000002103F063F800B106462879C04300F01E
:1042A0001000204305D10098012103F057F800B118
:1042B00006462879C04300F02000044304D100984A
:1042C000022103F04BF800B916B10120BDE8FE8FC2
:1042D0000020FBE74C4402582DE9F05F04000F4634
:1042E0007ED0DFF83882D8F8000000F00F00B84226
:1042F0000CD2D8F8001021F00F013943C8F8001093
:10430000D8F8000000F00F00B84269D12078844D41
:1043100040070AD52069296801F07001884204D954
:10432000296821F070010143296020787C4E361DF8
:1043300000070AD56069316801F07001884204D92C
:10434000316821F07001014331602078C0060AD540
:10435000A069316801F4E061884204D9316821F430
:10436000E061014331602078DFF8B4B180060BF1E1
:10437000080B0CD5E1695846DBF8002002F070020A
:10438000914204D9026822F070020A430260207848
:1043900080070AD5E068296801F00F01884204D936
:1043A000296821F00F01014329602078C0073ED021
:1043B0005B49A2682868183920F4706010432860AF
:1043C0006068022818D0032819D00968012819D07C
:1043D000490700294ADADFF848A1AAF1080A00E0F3
:1043E00044E0DAF8002022F007020243CAF8002075
:1043F000FEF720FC814612E009688903E9E70968B5
:104400008901E6E7C905E4E7FEF714FCA0EB090122
:1044100041F28830814202D90320BDE8F09F6168F3
:10442000DAF8000000F03800B0EBC10FECD12078D2
:1044300080070AD5E068296801F00F01884204D29C
:10444000296821F00F0101432960D8F80010404687
:1044500001F00F01B9420BD9016821F00F01394376
:104460000160006800F00F00B84201D00120D4E7DD
:10447000207840070AD52069296801F07001884238
:1044800004D2296821F070010143296020780007D7
:104490000AD56069316801F07001884204D2316840
:1044A00021F07001014331602078C0060AD5A0696F
:1044B000316801F4E061884204D2316821F4E0619E
:1044C00001433160207880060CD5E1695846DBF85D
:1044D000002002F07002914204D2026822F07002C1
:1044E0000A43026000F06CF80E492A682B68C2F398
:1044F000032203F00F038A5CC95C02F01F0201F083
:104500001F01D040084A20FA01F1116007490860F4
:1045100007480068BDE8F05FFEF7A6BC0020005227
:1045200018440258B8AE0090200000241C0000245B
:104530001400002430B500F043F80B4A0B490C4B33
:1045400015681468C5F3032204F00F048A5C095D42
:1045500002F01F0201F01F01D040064A20FA01F1CB
:1045600019601060084630BD18440258B8AE00907B
:10457000200000241C00002400B5FFF7DBFF0549E4
:104580000968054AC1F30211515C01F01F01C840DE
:1045900000BD00001C440258B8AE009000B5FFF703
:1045A000C9FF05490968054AC1F30221515C01F0C0
:1045B0001F01C84000BD00001C440258B8AE009066
:1045C000454970B545480968434B103B11F0380226
:1045D00008D00111082A03D0102A0BD0182A0BD0BA
:1045E000084670BD19688906FBD51968C1F3C10179
:1045F000C84070BD3A4870BD3749374D18310C1D61
:1046000024350A68096826682D6802F0030406F05C
:104610000102C1F30511C5F3CC0515FB02F200EE52
:10462000102AB8EE400AE9B32F4ADFED2E0AB7EEA2
:10463000001A6CB1DFED2D1A012C01D0022C43D0F1
:1046400002EE101A1068F8EE422A81EEA22A1EE04D
:104650001C68A40611D51B6801EE901A1168C3F3FB
:10466000C103F8EE612AD84001EE900AC1F30800B8
:10467000F8EE611A81EEA22A0BE001EE901ADFED4E
:104680001C2A00BFF8EE611A106882EEA12AC0F35E
:10469000080001EE900AF8EE611A40EE201A31EEA1
:1046A000810A00E015E022EE000A1068C0F34620FF
:1046B000401C00EE900AF8EE600A80EE201ABCEE74
:1046C000C10A10EE100A70BD01EE901ADFED092A42
:1046D000D8E7002070BD0000104402580090D003BD
:1046E00040787D0100000039304402580024744AAB
:1046F0000024744C20BCBE4B2DE9F05F04007DD03B
:10470000FF4F2078FE4D1837DFF8F493103DC007B7
:1047100048D0D9F80000396800F03800102815D0CA
:10472000182803D101F0030002280FD06068B0F50B
:10473000803F12D010B1B0F5A02F18D0286820F417
:1047400080302860286820F4802009E028688003F1
:1047500028D560680028D2D024E0286840F4803052
:104760002860606888B1FEF765FA064609E02868A7
:1047700040F480202860F0E7FEF75CFA801B642894
:104780006FD828688003F7D50CE0FEF753FA064689
:1047900005E000BFFEF74EFA801B6428F0D82868B9
:1047A0008003F7D4207841F20308D54E0C3E8007F1
:1047B00069D5D9F80000396810F038000ED01828F3
:1047C00001D188070AD0E06890B3296821F0190167
:1047D00001432960FEF72EFA824631E0286840073F
:1047E00002D5E06800288AD0E168286820F0190026
:1047F00008432860FEF71EFA824607E0DFE000BFAC
:10480000FEF718FAA0EB0A000228B9D8286840077A
:10481000F6D500BFFEF708FA40451BD820694028AE
:1048200012D0316821F47C3141EA003030602AE056
:1048300018E000BFFEF7FEF9A0EB0A0002289FD89F
:1048400028684007F6D5E5E7306820F47C3040F46E
:104850000030EBE7207C316821F0FE4141EA006046
:10486000E4E70DE1286820F001002860FEF7E2F996
:10487000824605E0FEF7DEF9A0EB0A0002288DD89B
:1048800028684007F6D42078C0065DD5D9F8000026
:10489000DFF86CB2396800F03800ABF1040B08287F
:1048A00010D0182803D101F0030001280AD0E069D4
:1048B0000028286838D040F080002860FEF7BAF958
:1048C000824623E02868C00523D5E069802876D198
:1048D0001FE0206A202821D0316821F0F84141EA08
:1048E0008060306030E000BF94F82010DBF80020DA
:1048F00022F07C5242EA0161CBF8001024E000BFB4
:10490000FEF798F9A0EB0A00022898D82868C0059D
:10491000F6D5FEF789F94045E6D8DAE7306820F0A9
:10492000F84040F08040DCE720F080002860FEF78F
:1049300081F9064605E000BFFEF77CF9801B0228DE
:104940009DD82868C005F7D42078000729D56C4881
:104950006169643000298046016811D041F001018D
:104960000160FEF767F9064605E000BFFEF762F951
:10497000801B0228C9D8D8F800008007F6D510E0BF
:1049800021F001010160FEF755F9064605E000BF80
:10499000FEF750F9801B022872D8D8F80000800773
:1049A000F6D42078800623D5A0690028286810D086
:1049B00040F480502860FEF73DF9064605E036E1F8
:1049C000FEF738F9801B02285AD828688004F7D5EA
:1049D0000EE020F480502860FEF72CF9064604E033
:1049E000FEF728F9801B02284AD828688004F7D4EB
:1049F000207840074FD5DFF80C81D8F8001041F43B
:104A00008071C8F80010FEF715F9064605E000BFF2
:104A1000FEF710F9801B642832D8D8F80000C005D2
:104A2000F6D5374EA068603601280AD008B10528AF
:104A300013D0306820F001003060306820F00400AE
:104A400002E0306840F001003060A06841F2883A2E
:104A500090B1FEF7EFF880460AE0306840F00400BD
:104A60003060EEE7FEF7E6F8A0EB0801514507D805
:104A700030688007F6D50EE0FEF7DCF8804607E0E8
:104A800084E000BFFEF7D6F8A0EB080151457DD8C1
:104A900030688007F6D4606AB0B3DFF86480D9F874
:104AA000001008F120084FF6F87B08F10409C1F363
:104AB000C2010329A8F1040A69D00228286820F05D
:104AC0008070286003D0FEF7B5F8044684E0FEF756
:104AD000B1F8064605E000BFFEF7ACF8801B0228DF
:104AE00077D828688001F7D4E26A40F2F331386859
:104AF00054F8283F884340EA02101843386004E025
:104B00001044025800480258B5E0217B43462289F0
:104B10004FF4FE0C208A4FF0FE474902267D521EBC
:104B2000401EA1F50071C2F308088AB2761E0CEA95
:104B3000004042EA08020243504607EA06610A437F
:104B40001A60DAF8002022F00102CAF80020D9F831
:104B50000020266A22EA0B0242EAC602C9F80020B7
:104B6000DAF80010A26921F00C011143CAF8001014
:104B70000168E26921F0020111430160016841F41A
:104B800080310160016841F4003101E021E027E05B
:104B90000160016841F480210160016841F0010178
:104BA0000160286840F080702860FEF743F80446F2
:104BB00005E000BFFEF73EF8001B022809D8286870
:104BC0008001F7D557E000BFFEF734F8001B02283C
:104BD00002D90320BDE8F09F28688001F4D44AE0A0
:104BE00039680128D8F8000021D0A26A01F0030337
:104BF00093421CD1E26AC1F305118A4217D1216B9D
:104C0000C0F30802491E8A4211D1616BC0F34622EB
:104C1000491E91420BD1A16BC0F30642491E91423D
:104C200005D1E16BC0F30660491E814201D001202D
:104C3000D0E7A16C4E46D9F80000C0F3CC00814209
:104C400019D0DAF80000554620F00100CAF800003B
:104C5000FDF7F0FF4FEA0007FDF7ECFFB842FBD08D
:104C6000A26C306820EA0B0040EAC200306028687D
:104C700040F0010028600020ACE7000070B504009F
:104C80000D4603D094F82C0010B107E0012070BD50
:104C9000002084F82D00204600F018F8022084F847
:104CA0002C002068211DFCF73DF9D4E900022946BB
:104CB000FCF76EF904480121026842F000420260EC
:104CC00084F82C10002070BD00400052FDF710BE8B
:104CD0002DE9FC5F0446806B0E46032184F83010FA
:104CE000002703285CD0B6F5004F59D0B6F5804FA9
:104CF0004FF000054FF400684FF0806904D006B310
:104D0000606B40F000603FE0009500210195206855
:104D100002F000FF80011CD46946204602F042FFE9
:104D200070BB019840032DD5B4F8441020680904E5
:104D300002F0A4FB20BB206802211DE0606B284329
:104D400022E0009500210195206802F0E3FE800139
:104D500001D54546F2E76946204602F023FF78B9BF
:104D60000198C0030ED5B4F844102068090402F07D
:104D700085FB28B92068002102F0CAFB0028DDD09D
:104D80000546DBE74D46D9E76063606B4FF4007B77
:104D9000DFF8B8A040B121680127C1F838A042E08F
:104DA000606B40F08050EFE700214FF48030FEF759
:104DB00059FC010032D0264D3346D4E904C0B1FB82
:104DC000F5F8D4E90192804510D9A66D5E450DD065
:104DD000B6F5807F11D04FEA6506E0B14FEA400892
:104DE000B1FBF8F8B04501D9B1FBF5F04946CDE982
:104DF00000C0206802F092FE15E0164E30B14FEA76
:104E00004008B1FBF8F8A84502D8EFE7A942EDD970
:104E1000B1FBF6F0EAE7B142E6D8E7E7606B0127BD
:104E200040F0006060632068594602F058FB30B1E2
:104E300022680127C2F838A0616B01436163012039
:104E400084F830003846BDE8FC9F0000FF0FE01FEB
:104E500080F0FA0200E1F505F0B5C26D920F0A701C
:104E6000C26DC2F383624A70C26DC2F301628A707E
:104E7000C26D120CCA70B0F85C20120A0A7190F868
:104E80005C204A71026E120DCA80026EC2F30342A8
:104E90000A72B0F86020C2F3C0324A72B0F86020E3
:104EA000C2F380328A72B0F86020C2F34032CA7214
:104EB000B0F860200026C2F300320A734E7301225C
:104EC000836B4FF4007463B1012B3AD003685049EF
:104ED0009963416B41F08051416380F8302001209B
:104EE000F0BDB0F86030456E9B051B0D43EA95732D
:104EF0000B61436EC3F3C2630B75436EC3F302636E
:104F00004B75436EC3F342538B75436EC3F38243B9
:104F1000CB75436EC3F3C2330B760D696D1C85648C
:104F20000B7E03F007039B1C9D4085640B7A446550
:104F300003F00F0302FA03F35F0A7D43C0E9133560
:104F40000EE090F86050436EAD06AD0A45EA13439B
:104F50000B610B695B1C9B028364C0E913434465CE
:104F6000B0F86430C3F380334B76B0F86430C3F3E9
:104F7000C6138B7690F8643003F07F03CB76836E94
:104F8000DB0F0B77836EC3F341734B77836EC3F3F1
:104F900082638B77836EC3F38353CB77836EC3F3C4
:104FA000405381F8203081F82160836EC3F30043C1
:104FB00081F82230B0F86830C3F3C03381F8233071
:104FC000B0F86830C3F3803381F82430B0F868302B
:104FD000C3F3403381F82530B0F86830C3F30033B1
:104FE00081F82630B0F86830C3F3812381F8273088
:104FF000B0F86830C3F3012381F8283090F86800D6
:10500000C0F3460081F8290081F82A200020F0BD75
:10501000FF0FE01F826B0A60C26B4A60026C8A60FD
:10502000426CCA60826C0A61C26C4A61026D8A611C
:10503000406DC8610020704770B5B0F8441000257D
:1050400004460068090402F050FB18B1616B01438B
:10505000616304E02068002102F05CFD0546C5F3B1
:10506000432070BD2DE9F041054690F8300090B026
:105070000C460026032810D06946284602F0DAFEC6
:105080002A4F4FF0010860B12A68012697636A6BC6
:1050900002436A6385F830803AE0012010B0BDE831
:1050A000F08100994FF47F40C1F381112170009984
:1050B000C1F34011617000990A4600EA112141EAEA
:1050C00012616180019909BA6160029921720299A5
:1050D000090A61720299C1F30351A172DDE902214B
:1050E00000EA1240C9B20843A0810398C0F38520AA
:1050F000A0730398C0F30120E0730398C0F303107A
:105100002074039800F00F0060740498000EA074DF
:1051100028684FF4007102F0E2F928B12A680126EC
:105120009763686385F830803046B7E7FF0FE01F6C
:10513000F0B5040085B020D094F83000002518B9EF
:105140002046257600F098F8042084F830002046A8
:1051500000F03CF888B969462046FFF783FF60B944
:105160009DF81010A26B9DF81100012A08D0A565CA
:105170002046E168FFF7ACFD58B1012005B0F0BD55
:10518000014302D04FF4007001E04FF48070A0653D
:10519000EEE7FDF74FFD0127064604E0FDF74AFD67
:1051A000801B401C0AD02046FFF746FF0428F5D19B
:1051B0006563E56284F830700020DFE74FF000405F
:1051C000606384F830700320D8E700002DE9FC41CB
:1051D0004FF0000804464FF480304146FEF742FA93
:1051E00005004FF0010723D0204843464246414680
:1051F000B5FBF0F6CDE90086206802F08FFC206850
:1052000002F09CFC1EB17000B5FBF0F52DB1184802
:10521000B0FBF5F0401CFDF759FB204602F0B0FD55
:1052200060B100BF84F83070616B0143616319E0C5
:105230004FF0006084F83070606313E0204602F0A5
:1052400023FD0028EED120684FF4007102F047F9E9
:10525000002808D0226807499163616B01436163AC
:1052600084F830700120BDE8FC81000000350C009E
:1052700010210100FF0FE01FF0B5B7B00446142164
:1052800030A8FBF7DFF8C0216846FBF7DBF82349BD
:10529000206888423FD1002014904FF480310446AA
:1052A000CDE900106846FEF741FB08B1FBF714FE9C
:1052B0001B48016841F480310160006800F48030CF
:1052C000359017480C30016841F004010160016815
:1052D00001F004013591016841F0080101600068A6
:1052E000022532AA00F0080035904FF4F850CDE9BD
:1052F000300503260B480C2782E8D00030A9FDF7C3
:105300006BFB042032AACDE93005074830A982E8BA
:10531000D000FDF761FB37B0F0BD00000070005217
:10532000D444025800080258000C02582DE9F04FEE
:1053300087B0994617460D460446FDF77BFC06905C
:105340003DB194F83000012807D0606B40F0005068
:105350000DE0606B40F0006009E0226D002007EB7B
:1053600009016063914204D9606B40F00070606392
:10537000A8E0032184F830102168C862A16B0129DC
:1053800000D07F024FF0020ACDE903A090264FF033
:10539000FF324FEA492305908DE84C008046206893
:1053A000694602F04DFA2068B9F1010F4FF001068D
:1053B000C16841F04001C16006D9C4F82CA039464B
:1053C000206802F0FDF804E0E6623946206802F049
:1053D00011F9DFF814A150B12368C3F838A0616B4C
:1053E0000143616384F83060C4F82C806AE0DDF822
:1053F00004B01FE0406B000414D5BBF1200F11D3A3
:105400000027206802F0A0FB020A2870010C6A70D5
:10541000030EA9707F1CEB70082F05F10405F0D373
:10542000ABF1200BFDF706FC0699411A109881425A
:1054300021D200B32068416B11F4957FDAD0C168A6
:1054400021F04001C1602068416BC90522D5B9F146
:10545000010F1FD9A16B03291CD002F093F9C8B129
:105460002368C3F838A0626B0243626384F830603B
:10547000C4F82C8026E02268C2F838A0606B40F0A7
:105480000040606384F83060C4F82C80032007B0CB
:10549000BDE8F08F2068416B090706D5C0F838A039
:1054A000616B404641F0080108E0416B89070BD56C
:1054B000C0F838A0616B404641F00201616384F896
:1054C0003060E0620120E2E7416B890606D5C0F852
:1054D00038A0616B404641F02001EFE7034981634A
:1054E00084F830600020D2E7FF0FE01F3A0F001869
:1054F0002DE9F04F89B09A4616460D460446FDF751
:1055000099FB06903DB194F83000012807D0606BFC
:1055100040F000500DE0606B40F0006009E0226D4B
:10552000002006EB0A016063914204D9606B40F0F1
:1055300000706063B2E0032184F830102168C86213
:10554000A16B012900D076024FF0FF314FEA4A22C9
:10555000059090230490CDE90230CDE900128046F9
:105560002068694602F06CF92068C168BAF1010F41
:1055700041F04002C26006D92020E0622068314636
:1055800002F02AF905E01020E0622068314602F0BE
:105590003DF9DFF830B106004FF001090AD0236869
:1055A000C3F838B0606B3043606384F83090C4F85F
:1055B0002C8073E00198089027E0406B40041CD5D4
:1055C0000898202819D3002728780790697840EA9E
:1055D00001200790A97840EA01400790E9782D1D45
:1055E00040EA01600790206807A902F0C5FA7F1C15
:1055F000082FE9D3089820380890FDF71BFB06997F
:10560000411A1298814221D200B32068416B11F4F3
:105610008D7FD2D0C16821F04001C1602068416B0C
:10562000C90521D5BAF1010F1ED9A16B03291BD0E1
:1056300002F0A8F8C0B12568C5F838B0616B014325
:10564000616384F83090C4F82C8027E02368C3F8A5
:1056500038B0626B3243626384F83090C4F82C80B7
:10566000032009B0BDE8F08F2068416B090707D51A
:105670004946C0F838B0626B404642F0080209E083
:10568000416B89070CD54946C0F838B0626B40467B
:1056900042F00202626384F83010E0620120E0E729
:1056A000416BC90607D54946C0F838B0626B404621
:1056B00042F01002EEE7044A826384F83090002042
:1056C000CFE70000FF0FE01F3A0F00182DE9F04769
:1056D000040029D0594A4FF000092068584B594D11
:1056E0009042C4F8289006D0984204D0A84202D034
:1056F000E1680F2918D8E1684FF0010AE76B08311B
:10570000C9080AEB57167143904205D0984203D05E
:10571000A84201D0082907D8904203D0984201D06E
:10572000A84204D1102902D90120BDE8F08794F8DD
:10573000810020B9204684F8809000F085F802208E
:1057400084F881002068016821F00101016020686F
:10575000A1698268B1F1806F02F4F81110D162681A
:10576000B2F5800F01D01AB10AE0A26B22B107E0B6
:10577000A26BB2F1805F03D1026842F480520260F2
:105780006068400209D5E068072806D32068236DC9
:10579000026822F480721A4303E02068026822F44F
:1057A00080720260A66AE069E26B25683043E368B4
:1057B0000A4310431843A860D4E90D02D4E90581D7
:1057C000636A25691843D4F820C00A432668104349
:1057D0002843A56DD4E90172D4E9123140EA0800EA
:1057E00040EA0C0038430843104318432843F06054
:1057F000606868B92068816821F4C05141F4006193
:1058000081602068816821F4C06141F48061816019
:105810002068016D21F0010101656068400206D534
:105820002068626DC16821F000411143C160C4F875
:10583000849084F881A0002077E7000000300140C8
:1058400000380040003C00402DE9F04186B004469D
:1058500014216846FAF7F6FD24492068884242D1AF
:105860002348016841F480510160006800F48050D1
:1058700005901F481038016841F00201016001687D
:1058800001F002010591016841F0400101600168E9
:1058900001F040010591016841F0010101600068DB
:1058A000052701AA4FF0200800F00100CDF8008084
:1058B000022469460025CDE9047003260D4882E8DC
:1058C0007000FDF789F8200269468DE8F1000A486A
:1058D000FDF782F801AACDF800800848694682E801
:1058E000F000FDF779F806B0BDE8F0810030014026
:1058F000F0440258000402580018025800000258F0
:10590000024A136883430B43136070470404005832
:10591000401EB0F1807F10B501D3012010BD4FF0C3
:10592000E02460610F21601703F0C0FA0020A0613D
:105930000721216110BD704770477047F0B590F89E
:105940003C20012A3BD01F4E012480F83C4002221B
:1059500080F83D2002681C4D5368B242D2F808C05E
:1059600001D0AA4203D14F6823F470033B430F6870
:1059700023F070031F4357600268B24213D0B2F1A4
:10598000804F10D0114B9A420DD0114B9A420AD041
:10599000104B9A4207D0AA4205D00F4B9A4202D030
:1059A0000E4B9A4204D189682CF080031943916010
:1059B000002180F83D4080F83C100846F0BD0220F0
:1059C000F0BD000000000140000401400004004060
:1059D00000080040000C004000180040004001405A
:1059E00010B5040003D094F83D0010B107E0012089
:1059F00010BD002084F83C00204600F023F802206F
:105A000084F83D002068211D02F06CFC012084F820
:105A1000480084F83E0084F83F0084F8400084F891
:105A2000410084F8420084F8430084F8440084F87C
:105A3000450084F8460084F8470084F83D000020C3
:105A400010BD000010B586B0044614216846FAF770
:105A5000F9FC1C4A21681C48914227D1016841F099
:105A600008010160006800F0080005901648083839
:105A7000016841F00101016000680121042200F089
:105A80000100059002200092CDE90101CDE903104B
:105A90000E486946FCF7A0FF00220C213220FDF7DA
:105AA0008BFB3220FDF77AFB06B010BD084A91420D
:105AB000FAD1016841F010010160006800F01000A7
:105AC0000590F1E7000C0040E8440258000002583D
:105AD0000010004070B5044690F83C0000250128F5
